:100000000A128A11F52F00308A000408840A820738
:100010000034473455344E34213400344E344134A6
:0600200049344C340034A9
:100B4A0008340A128A11DB250A128A118316031342
:100B5A00111408000A128A11DB250A128A11831657
:100B6A0003131115080018300A128A1111260A12E5
:100B7A008A110D30F600F60BC02D08001C300A123F
:100B8A008A1111260A128A110D30F600F60BCB2DA6
:100B9A00080028308312031394008316031391016B
:100BAA00940109309300871507160800831603136A
:100BBA001419E02DE12DDB2D11081F39031DE62D37
:100BCA00E72DDB2D0800F0000A128A11DB250A1234
:100BDA008A1170088312031393008C1DF52DF62DCC
:100BEA00F22D8C110800F3007C08FF007F08F30443
:100BFA00730804380A128A112B260A128A117308FA
:100C0A00FB390A128A112B260A128A111030F200B5
:100C1A00F20B0D2E00000800F500FC017508F039F2
:100C2A000A128A11F8250A128A117508F40003308B
:100C3A000310F40DFF3E031D1D2E0310740DF03931
:100C4A000A128A11F8250A128A110800F1000A12FA
:100C5A008A11A6250A128A118312031326080A1278
:100C6A008A11E8250A128A1171087D040A128A116A
:100C7A00E8250A128A110A128A11AF250A128A1164
:100C8A000800F500FC01FC0A7508F0390A128A11FD
:100C9A00F8250A128A117508F40003300310F40DBE
:100CAA00FF3E031D532E0310740DF0390A128A11E8
:100CBA00F8250A128A110800F800F601F701782EC1
:100CCA007608780784000A128A1103200A128A1108
:100CDA000A128A1146260A128A110130F6070318E7
:100CEA00F70A0030F7077608780784000A128A1193
:100CFA0003200A128A11003A031D842E852E652EBE
:100D0A000800F700A82E7608BF3E0A128A1111269B
:100D1A000A128A11B32E7608933E0A128A111126F4
:100D2A000A128A11B32E7608D33E0A128A111126A4
:100D3A000A128A11B32E76087F3E0A128A111126E8
:100D4A000A128A11B32E7708023A0319882E013A39
:100D5A000319902E073A0319982EA02E0800F800BE
:100D6A00780883120313A60000300A128A112B2670
:100D7A000A128A112730F700F530F600F60BC32E57
:100D8A00F70BC32E03300A128A1111260A128A118E
:100D9A000730F7007D30F600F60BD12EF70BD12E77
:100DAA0003300A128A1111260A128A110730F70033
:100DBA007D30F600F60BDF2EF70BDF2E03300A121A
:100DCA008A1111260A128A110730F7007D30F600BF
:100DDA00F60BED2EF70BED2E02300A128A111126B0
:100DEA000A128A110730F7007D30F600F60BFB2E47
:100DFA00F70BFB2E28300A128A1111260A128A11C1
:100E0A004130F700EE30F600F60B092FF70B092FE9
:100E1A0000000C300A128A1111260A128A11413076
:100E2A00F700EE30F600F60B182FF70B182F00001C
:100E3A0001300A128A1111260A128A114130F7006A
:100E4A00EE30F600F60B272FF70B272F000006309F
:100E5A000A128A1111260A128A114130F700EE305D
:100E6A00F600F60B362FF70B362F000008000A1291
:100E7A008A11CE250A128A1140300A128A11B42622
:100E8A000A128A110730F60001300A128A118626E0
:100E9A000A128A1106300A128A1161260A128A1166
:100EAA000730F60002300A128A1186260A128A11BF
:100EBA0001300A128A1161260A128A110330FB00D4
:100ECA008A30FA005530F900F90B692FFA0B692FAD
:100EDA00FB0B692F702F83120313A001A1010A12C1
:100EEA008A11C3250A128A110230FB004530FA0022
:100EFA00A930F900F90B7F2FFA0B7F2FFB0B7F2FFD
:100F0A00862F013083120313A0070318A10A0030A9
:100F1A00A1072108803AFF0080307F02031D972F26
:100F2A0006302002031C9A2F9B2F742F831203135F
:100F3A00A201A3010A128A11B8250A128A110230E3
:100F4A00FB004530FA00A930F900F90BAA2FFA0B79
:100F5A00AA2FFB0BAA2FB12F013083120313A2076A
:100F6A000318A30A0030A3072308803AFF00803041
:100F7A007F02031DC22F0C302202031CC52FC62F6D
:100F8A009F2F83120313A401A5010A128A11C325F4
:100F9A000A128A110230FB004530FA00A930F90022
:100FAA00F90BD52FFA0BD52FFB0BD52FDC2F0130E0
:100FBA0083120313A4070318A50A0030A5072508FE
:100FCA00803AFF0080307F02031DED2F0C3024028F
:100FDA00031CF02FF12FCA2F9B2F0A128A11002807
:100FEA000A128A11A5250A128A11FD00FC01830141
:060FFA000A128A113C2FCF
:02400E00713F00
:00000001FF
