:060000000A128A11EE2F26
:100F180083160313860183120313860108003F34E6
:100F280006345B344F3466346D347D3407347F3493
:100F38006F34831203138E018F01901490151012D1
:100F480090121011101408007E088A007F08820091
:100F58000A128A11A8270A128A118000840A040832
:100F68007D0603190034FF0A0319FE0AAC2F0A1282
:100F78008A118C270A128A110A128A119D270A12CD
:100F88008A11743084002030F0000408F1000A301F
:100F9800F2007008840083130008F300F00A710857
:100FA800840073088000F10AF20BCD2F831203131B
:100FB8000E08743E8400000886000A300E060F04EE
:100FC800031DE72FE82FDA2F8E018F01DA2F0A127F
:100FD8008A11002883132A30FD000730FE00933061
:100FE800FF00203084000A128A11AC270A128A11E5
:080FF80083010A128A11BB2FCC
:02400E00713F00
:00000001FF
