:060000000A128A110C280F
:10000800FE00030EF0000A08F1000A168A15D02E29
:100018000A128A110F288313D6308400E9300A1691
:100028008A159E260A128A11831790308400A930F7
:100038000A168A159E260A128A111030840060302A
:100048000A168A159E260A128A1183010A168A112F
:100058008F2B3F3083160313CC008030CB00003049
:10006800CA000030C900B001B1014808F5004708CE
:10007800F4004608F3004508F2000030F9000030AB
:10008800F8000030F7000030F6000A168A11B32194
:100098000A128A11031851285228632A63288316E2
:1000A80003133708CC003608CB003508CA003408DB
:1000B800C9000130B0070318B10A0030B107413058
:1000C80083120313A9002030A8000030A7000030D5
:1000D800A600831603134C0883120313AD0083167E
:1000E80003134B0883120313AC00831603134A0847
:1000F80083120313AB0083160313490883120313F7
:10010800AA000A128A15BB240A128A118312031341
:10011800290883160313B7008312031328088316CC
:100128000313B60083120313270883160313B500BD
:1001380083120313260883160313B4004508831299
:100148000313D10083160313460883120313D20046
:1001580083160313470883120313D300831603136C
:10016800480883120313D400831603133408831238
:100178000313D102831603133508031C350FC52852
:10018800C82883120313D202831603133608031CEC
:10019800360FCF28D22883120313D30283160313F2
:1001A8003708031C370FD928DC2883120313D4021D
:1001B80083160313831203135408F5005308F4003D
:1001C8005208F3005108F2000A168A1145200A1253
:1001D8008A11F51BFF287508031D00297408031DE3
:1001E80000297308031D002902307202031DFC2830
:1001F800031CFF280029532883160313370883128A
:100208000313C30083160313360883120313C200B3
:1002180083160313350883120313C10083160313CF
:10022800340883120313C00083160313480883128B
:100238000313C70083160313470883120313C6006A
:1002480083160313460883120313C500831603138A
:10025800450883120313C4000A168A1123240A12BC
:100268008A11031C38293929532883160313450892
:1002780083120313D1008316031346088312031352
:10028800D20083160313470883120313D30083167F
:100298000313480883120313D40083160313490871
:1002A80083120313D102831603134A08031C4A0F4F
:1002B8005E29612983120313D202831603134B08A4
:1002C800031C4B0F68296B2983120313D30283166F
:1002D80003134C08031C4C0F72297529831203134E
:1002E800D40283160313831203135408F50053082A
:1002F800F4005208F3005108F2000A168A1145204A
:100308000A128A11F51B99297508031D9829740882
:10031800031D98297308031D982902307202031DD2
:1003280095290318982999292A2A831603134C0812
:10033800C8004B08C7004A08C6004908C500632A18
:100348004130F5002030F4000030F3000030F200B6
:10035800831603134C08F9004B08F8004A08F70005
:100368004908F6000A128A158E200A128A117508A1
:1003780083160313CC007408CB007308CA007208F4
:10038800C900FF30B0070318B10AFF30B1074508AC
:1003980083120313D1008316031346088312031331
:1003A800D20083160313470883120313D30083165E
:1003B8000313480883120313D40083160313490850
:1003C80083120313D102831603134A08031C4A0F2E
:1003D800EE29F12983120313D202831603134B0863
:1003E800031C4B0FF829FB2983120313D30283162E
:1003F80003134C08031C4C0F022A052A831203130B
:10040800D40283160313831203135408F500530808
:10041800F4005208F3005108F2000A168A11452028
:100428000A128A11F51B292A7508031D282A74083F
:10043800031D282A7308031D282A02307202031D8F
:10044800252A0318282A292A2A2A992983160313D0
:10045800480883120313C300831603134708831243
:100468000313C20083160313460883120313C10043
:1004780083160313450883120313C000831603135E
:100488004C0883120313C700831603134B08831207
:100498000313C600831603134A0883120313C50007
:1004A80083160313490883120313C4000A168A111A
:1004B80023240A128A11031C622A632AA42983129C
:1004C8000313500883160313A9002908AA00E51B83
:1004D8006E2A6F2A742A6508A3006408A200782A85
:1004E8000630A2000030A3002308AE002208AD00A9
:1004F8000130AD070318AE0A0030AE0766302A0691
:10050800031D872A882AA22AB11F8B2A8C2A962A99
:100518003F30CC008030CB000030CA000030C9002A
:10052800B001B1016730290603199B2A9C2AA22A27
:100538003008AD070318AE0A3108AE07B801B90193
:100548004808BD004708BC004608BB004508BA007B
:100558004C08B7004B08B6004A08B5004908B40073
:100568009D2B831603134C08F5004B08F4004A082A
:10057800F3004908F2003D08F9003C08F8003B0880
:10058800F7003A08F6000A128A158E200A128A1114
:10059800750883120313B5007408B4007308B30018
:1005A8007208B2000A168A11C8250A128A11831223
:1005B8000313350883160313C10083120313340889
:1005C80083160313C000831203133308831603131F
:1005D800BF0083120313320883160313BE004108B9
:1005E800F5004008F4003F08F3003E08F2000A1640
:1005F8008A1119230A128A11730883160313AC008F
:100608007208AB004C0883120313AD008316031362
:100618004B0883120313AC00831603134A08831292
:100628000313AB0083160313490883120313AA00AC
:1006380083160313410883120313A90083160313B7
:10064800400883120313A800831603133F0883127C
:100658000313A700831603133E0883120313A6008F
:100668000A128A15BB240A128A1183120313290855
:10067800C3002808C2002708C1002608C000831646
:1006880003133D0883120313C700831603133C08A2
:1006980083120313C600831603133B088312031344
:1006A800C500831603133A0883120313C4000A16FD
:1006B8008A1542270A128A118312031343088316E4
:1006C8000313BD0083120313420883160313BC00EF
:1006D80083120313410883160313BB008312031309
:1006E800400883160313BA004130F5002030F400A7
:1006F8000030F3000030F2004C08F9004B08F80015
:100708004A08F7004908F6000A128A158E200A12CC
:100718008A11750883160313CC007408CB0073087C
:10072800CA007208C9000130B8070318B90A0030B6
:10073800B9073908803A83120313D10083160313CB
:100748002E08803A831203135102031DAF2B831620
:1007580003132D083802031CB22BB32BB52A4030E3
:1007680083120313A900A030A8000030A7000030AE
:10077800A600831603134C0883120313AD008316D7
:1007880003134B0883120313AC00831603134A08A0
:1007980083120313AB008316031349088312031350
:1007A800AA000A128A15BB240A128A11831203139B
:1007B800290883160313C10083120313280883161C
:1007C8000313C00083120313270883160313BF0003
:1007D80083120313260883160313BE003D088312F1
:1007E8000313C300831603133C0883120313C200C8
:1007F800831603133B0883120313C10083160313E4
:100808003A0883120313C0008316031341088312A6
:100818000313C70083160313400883120313C6008B
:10082800831603133F0883120313C50083160313AB
:100838003E0883120313C4000A168A1123240A12DD
:100848008A110318282C292C342C00308316031302
:10085800C1000030C0000030BF000030BE005D2C79
:10086800831603133D08F5003C08F4003B08F30029
:100878003A08F2004108F9004008F8003F08F7007C
:100888003E08F6000A168A11B3210A128A11031CBF
:100898004E2C4F2C5D2C831603132B18542C552CDF
:1008A8005D2C0030C1000030C0000030BF000030B7
:1008B800BE00831603134108F5004008F4003F0802
:1008C800F3003E08F2004808F9004708F800460817
:1008D800F7004508F6000A128A1563220A128A11DF
:1008E800750883160313BD007408BC007308BB00A9
:1008F8007208BA003D0883120313C300831603135A
:100908003C0883120313C200831603133B088312A7
:100918000313C100831603133A0883120313C0009C
:100928004130A9002030A8000030A7000030A60000
:1009380083160313370883120313AD0083160313BA
:10094800360883120313AC00831603133508831289
:100958000313AB0083160313340883120313AA008E
:100968000A128A15BB240A128A1183120313290852
:10097800C7002808C6002708C5002608C4000A16AC
:100988008A1123240A128A11031CCB2CCC2C1F2D6C
:10099800013083160313B0070318B10A0030B107FA
:1009A800413083120313A9002030A8000030A700AB
:1009B8000030A60083160313370883120313AD0013
:1009C80083160313360883120313AC00831603132C
:1009D800350883120313AB008316031334088312FC
:1009E8000313AA000A128A15BB240A128A11831259
:1009F8000313290883160313B70083120313280867
:100A080083160313B60083120313270883160313F0
:100A1800B50083120313260883160313B400663047
:100A28002A06031D182D192D1F2D0130AD07031897
:100A3800AE0A0030AE07831603133708CC00360819
:100A4800CB003508CA003408C9003108A1003008B5
:100A5800A000A801A401A501B801B901932E83162D
:100A680003134C08F5004B08F4004A08F300490842
:100A7800F2003D08F9003C08F8003B08F7003A0886
:100A8800F6000A128A158E200A128A117508831236
:100A98000313B5007408B4007308B3007208B200F9
:100AA8000A168A11C8250A128A11831203133508F7
:100AB80083160313C1008312031334088316031328
:100AC800C00083120313330883160313BF00831275
:100AD8000313320883160313BE004108F5004008CB
:100AE800F4003F08F3003E08F2000A168A111923A1
:100AF8000A128A117308803AFF0080307F02031DB2
:100B0800872D0A30720203188A2D8B2DA12D83168A
:100B180003134108F5004008F4003F08F3003E08BD
:100B2800F2000A168A1119230A128A117308831609
:100B38000313AC007208AB00A72D0930831603130A
:100B4800AB000030AC002808031DAB2DAC2DDD2D0B
:100B5800A11FAF2DB02DDD2D4308103E84002E308F
:100B6800831780000130C3070318C40A0030C40784
:100B7800FF30B2070318B30AFF30B307A801A80A69
:100B8800DD2D4308103E840030308317800001308B
:100B9800C3070318C40A0030C407FF30B20703189C
:100BA800B30AFF30B307FF30A4070318A50AFF30C4
:100BB800A50724082504031DE22DE32DC52D4308B0
:100BC800103E84002B08303E831780000130C30795
:100BD8000318C40A0030C407FF30B2070318B30A69
:100BE800FF30B3074C0883120313AD0083160313B9
:100BF8004B0883120313AC00831603134A088312AD
:100C08000313AB0083160313490883120313AA00C6
:100C180083160313410883120313A90083160313D1
:100C2800400883120313A800831603133F08831296
:100C38000313A700831603133E0883120313A600A9
:100C48000A128A15BB240A128A118312031329086F
:100C5800C3002808C2002708C1002608C000831660
:100C680003133D0883120313C700831603133C08BC
:100C780083120313C600831603133B08831203135E
:100C8800C500831603133A0883120313C4000A1617
:100C98008A1542270A128A118312031343088316FE
:100CA8000313BD0083120313420883160313BC0009
:100CB80083120313410883160313BB008312031323
:100CC800400883160313BA004130F5002030F400C1
:100CD8000030F3000030F2004C08F9004B08F8002F
:100CE8004A08F7004908F6000A128A158E200A12E7
:100CF8008A11750883160313CC007408CB00730897
:100D0800CA007208C900FF30A0070318A10AFF3003
:100D1800A1070130B8070318B90A0030B907390824
:100D2800803A83120313D100831603132E08803AE6
:100D3800831203135102031DA52E831603132D08D6
:100D480038020318A82EA92EB82E831603134408B8
:100D5800803AFF0080307F02031DB42E4B304302DF
:100D6800031CB72EB82E332D4F3083160313B8004B
:100D78000030B9003808103E840083178001103015
:100D8800F2004408F4004308F30010308312031300
:100D9800D10083160313430883120313D102831669
:100DA800031338088312031351070A168A158B2771
:100DB8000A128A118316031343083802C300440831
:100DC800031C440A3902C4004208031DEC2EEE2E0F
:100DD8000130EF2E003083120313D100D2015108E5
:100DE80083160313B80083120313520883160313E0
:100DF800B90042080319012F022F0E2FFF30C30735
:100E08000318C40AFF30C4074308103E8400420890
:100E1800831780003808B2023908031CB303B302F1
:100E28004308103E83120313A600831603133308E6
:100E380083120313A80083160313320883120313C3
:100E4800A700831603132F080A168A11AF200A1267
:100E58008A11080083120313A00020080319352FF4
:100E6800362F4A2FF51F392F3A2F4A2F7209A20021
:100E78007309A3007409A4007509A500A20A03193F
:100E8800A30A0319A40A0319A50A522F7508A50075
:100E98007408A4007308A3007208A20075087404FB
:100EA80073047204031D592F5A2F632F0030F50065
:100EB8000030F4000030F3000030F200E72F9630E5
:100EC800A100732F0130FF007F08A1070130031034
:100ED800A50CA40CA30CA20CFF3E031D6B2FFE3027
:100EE8002505031D782F792F662F952F0130FF00D8
:100EF8007F08A1070130A207003003180130A307BB
:100F0800003003180130A407003003180130A5078A
:100F180001300310A50CA40CA30CA20CFF3E031D6A
:100F28008D2FFF302505031D9A2F9B2F7A2FA72F72
:100F38000130A1020130F6000310A20DA30DA40D8B
:100F4800A50DF60BA02FA41BAA2FAB2FB12F023093
:100F580021020318B02FB12F9C2F2118B42FB52FC1
:100F6800BD2FFF30A205FF30A3057F30A405FF3059
:100F7800A5050310A10C2108F600F701F801F901F5
:100F880018300310F60DF70DF80DF90DFF3E031D8F
:100F9800C52F7608A2047708A3047808A404790862
:100FA800A50420080319D92FDA2FDF2FF51FDD2F0D
:100FB800DE2FDF2FA5172508F5002408F4002308E5
:100FC800F3002208F2000800F400831203138612CB
:100FD80074080A168A1520270A128A118312031325
:100FE8000616A630F300F30BF72F00008312031345
:060FF800061208000800CB
:10100200831603135D0883120313A50083160313CB
:101012005C0883120313A400831603135B08831274
:101022000313A300831603135A0883120313A200A7
:101032007508A5007408A4007308A3007208A20032
:101042002208F6002308F7002408F8002508F90012
:1010520017300310F90CF80CF70CF60CFF3E031DC9
:101062002A28FF307605A00000307705A10020086D
:101072002104031D3D283E2861282208F60023088A
:10108200F7002408F8002508F90001300310F60DD6
:10109200F70DF80DF90DFF3E031D47287908780476
:1010A20077047604031D562857285C280230F20084
:1010B2000030F3008D280330F2000030F3008D2859
:1010C200200A2104031D6628672889282208F600C1
:1010D2002308F7002408F8002508F9000930031056
:1010E200F60DF70DF80DF90DFF3E031D7028790876
:1010F20078047704760403197F2881280130822836
:101102000030FA00FB017A08F2007B08F3008D2818
:101112000430F2000030F3000800790880398312AD
:101122000313A9007908A0002007B000F81F9A282D
:101132009B289C28301430080319A028A128B12824
:10114200300A031DA528A628AE280030F900003079
:10115200F8000030F7000030F600F817F901B9285E
:101162000030F9000030F8000030F7000030F600DF
:1011720075088039FF007F08A9067508A0002007BE
:10118200B100F41FC528C628C72831143108031935
:10119200CB28CC28DC28310A031DD028D128D92815
:1011A2000030F5000030F4000030F3000030F200AF
:1011B200F417F501E4280030F5000030F4000030A7
:1011C200F3000030F2007508740473047204031D06
:1011D200EB28EC2805290030F9000030F800003037
:1011E200F7000030F6008030F8047F30F904290857
:1011F200FF007F08F9047908F5007808F400770801
:10120200F3007608F200622A3008031D09290A2930
:1012120013290030F5000030F4000030F3000030F4
:10122200F200622A3008A000A1012108A3003108BF
:101232002002A200031CA30322087F3EAA00230867
:101242000318013E003EAB007908A8007808A70009
:101252007708A6007608A5000030F9000030F800F3
:101262000030F7000030F6000030AF000030AE0072
:101272000030AD000030AC00B1018F2931080319F4
:101282004329442964290130A0000310A50DA60DAD
:10129200A70DA80DA00B46290130A0000310F60DE2
:1012A200F70DF80DF90DA00B4F29AF1F59295A2937
:1012B2005B2976140130A0000310AC0DAD0DAE0D0C
:1012C200AF0DA00B5D2975082802031D7229740851
:1012D2002702031D722973082602031D7229720850
:1012E2002502031C752976298B292F177208A5025E
:1012F2007308031C730F7E297F29A6027408031C3E
:10130200740F84298529A7027508031C750F8A2981
:101312008B29A8020130FF007F08B1071A30310281
:10132200031C942995293F2928082704260425040B
:1013320003199C299D29BC292C14BC290130A00029
:101342000310F60DF70DF80DF90DA00BA129AF1F33
:10135200AB29AC29AD2976140130A0000310AC0DE5
:10136200AD0DAE0DAF0DA00BAF29FF30AA070318CC
:10137200AB0AFF30AB07F81FBF29C0299F29B10173
:10138200AF1FC429C529E129FF302C05A000FF3079
:101392002D05A100FF302E05A2007F302F05A300EE
:1013A20023082204210420040319D829D929DC297D
:1013B200B101B10AE129761CDF29E029E129D92905
:1013C20031080319E529E629172A0130F60700300A
:1013D20003180130F707003003180130F807003016
:1013E20003180130F907791CF729F829172A76081A
:1013F200A0007708A1007808A2007908A3000130B4
:10140200A400230DA30CA20CA10CA00CA40B022A75
:101412002308F9002208F8002108F7002008F60046
:101422000130AA070318AB0A0030AB072B08803A39
:10143200FF0080307F02031D202AFF302A02031C96
:10144200232A242A322AFF3083120313AA000030EF
:10145200AB000030F9000030F8000030F700003037
:10146200F600831203132B08803AFF0080307F02BC
:10147200031D3D2A01302A020318402A412A4E2A1E
:1014820083120313AA01AB010030F9000030F80007
:101492000030F7000030F600A901831203132A0876
:1014A200B000301C552A562A582AF8175C2A7F3079
:1014B200FF007F08F8053008A0000310200CF90097
:1014C200F82808007508803983120313A8007508EC
:1014D200A0002007AA00F41F6F2A702A712A2A147A
:1014E2002A080319752A762A862A2A0A031D7A2AC5
:1014F2007B2A832A0030F5000030F4000030F3002C
:101502000030F200F417F5018E2A0030F5000030A9
:10151200F4000030F3000030F20079088039A900AD
:10152200290828060319962A972A982A281779083B
:10153200A0002007A900F81F9F2AA02AA12A291487
:1015420029080319A52AA62AB62A290A031DAA2AA6
:10155200AB2AB32A0030F9000030F8000030F7005F
:101562000030F600F817F901BE2A0030F900003009
:10157200F8000030F7000030F6002A0829020318AC
:10158200C32AC42AEA2A281FC72AC82ACC2A80309A
:10159200FF007F08A8062A08AB002908AA002B082A
:1015A200A9007208AB007608F2002B08F600730857
:1015B200AB007708F3002B08F7007408AB0078083B
:1015C200F4002B08F8007508AB007908F5002B0829
:1015D200F900AB012908A000A1012108A3002A08F3
:1015E2002002A200031CA3032308803AFF008030DC
:1015F2007F02031DFE2A1A302202031C012B022B3A
:10160200392B7508740473047204031D092B0B2B08
:1016120001300C2B003083120313AB000030F500B5
:101622000030F4000030F3000030F2002908AA0074
:10163200412B2B1C1D2B1E2B252B2B08A00003102E
:10164200200C0138AB00272B0310AB0C721C2A2B89
:101652002B2B2C2BAB170130A000750DF50CF40CC5
:10166200F30CF20CA00B2E2B0130FF007F08AA070F
:101672008312031329082A02031C402B412B1A2B25
:10168200281B442B452B8E2B2A08031D492B4A2B42
:10169200532B0030F5000030F4000030F30000302E
:1016A200F200BA2C7608F207770803110318013EFC
:1016B20003195C2BF307780803110318013E031981
:1016C200632BF407790803110318013E03196A2BEF
:1016D200F507751C6D2B6E2B422C2B1C712B722B5C
:1016E200792B2B08A0000310200C0138AB007B2BB8
:1016F2000310AB0C721C7E2B7F2B802BAB1701309F
:10170200A000750DF50CF40CF30CF20CA00B822B5F
:101712000130FF007F08AA07422C7508803AFF00BB
:101722007908803A7F02031DA02B78087402031DFA
:10173200A02B77087302031DA02B760872020318F0
:10174200A32BA42BFC2BFF30A000FF30A100FF3005
:10175200A200FF30A3007608A4007708A50078084D
:10176200A6007908A7007208A4027308031C730F6D
:10177200BB2BBC2BA5027408031C740FC12BC22BFC
:10178200A6027508031C750FC72BC82BA7022408D5
:10179200A00725080318250FCF2BD02BA107260859
:1017A2000318260FD52BD62BA20727080318270AC2
:1017B200A3072308F5002208F4002108F3002008FB
:1017C200F2008030FF007F08A806AB09AB0A2B08A5
:1017D200031DEC2BED2B0A2C0130F207003003180D
:1017E2000130F307003003180130F407003003180A
:1017F2000130F5070A2C7608F2027708031C770FEE
:10180200F3027808031C780FF4027908031C790F9D
:10181200F5027508740473047204031D112C122C52
:101822003E2C2B08031D162C172C3E2C0030F500E5
:101832000030F4000030F3000030F200BA2C013026
:10184200A0000310F20DF30DF40DF50DA00B222CE8
:10185200AB1F2C2C2D2C2E2C72142B1C312C322C29
:10186200352C0314AB0D372C0310AB0D2A080319CA
:101872003B2C3C2C3E2C0130AA02F41F412C422C62
:10188200202CA901AB1F462C472C552C2B087F3945
:1018920003194C2C4D2C502CA901A90A552C721C51
:1018A200532C542C552C4D2C29080319592C5A2CE5
:1018B2008E2C0130F207003003180130F30700309C
:1018C20003180130F407003003180130F507751CC6
:1018D2006B2C6C2C8E2C7208A0007308A10074086B
:1018E200A2007508A3000130A400230DA30CA20CD2
:1018F200A10CA00CA40B762C2308F5002208F400FE
:101902002108F3002008F2002A0A0319892C8A2CE4
:101912008E2C0130FF007F08AA072A0A0319922C95
:10192200932C982C2A08031D972C982CA62C003057
:10193200F5000030F4000030F3000030F2002A0815
:10194200031DA42CA52CA62CA8012A1CA92CAA2C68
:10195200AC2CF417B02C7F30FF007F08F4052A0866
:10196200A0000310200CF500A81FB82CB92CBA2C2B
:10197200F51708008312031329088039B3002908D8
:10198200AE002E07B900A81FC72CC82CC92C3914C9
:1019920039080319CD2CCE2CDD2C390A031DD22C8B
:1019A200D32CDB2C0030A9000030A8000030A700A7
:1019B2000030A600A817E52C0030A9000030A800CE
:1019C2000030A7000030A6002D088039FF007F08F4
:1019D200B3062D08AE002E07B800AC1FF12CF22C76
:1019E200F32C381438080319F72CF82C072D380A71
:1019F200031DFC2CFD2C052D0030AD000030AC0089
:101A02000030AB000030AA00AC170F2D0030AD0043
:101A12000030AC000030AB000030AA0038080319D7
:101A2200132D142D192D3908031D182D192D222DB2
:101A32000030A9000030A8000030A7000030A60046
:101A4200FF2F2608F2002C080A168A15B1270A125F
:101A52008A15730883120313BF007208BE003E0882
:101A6200AE00AF01B001B1013108B7003008B600D5
:101A72002F08B5002E08B4003F08AE00AF01B00138
:101A8200B1013108BD003008BC002F08BB002E0890
:101A9200BA002708F2002B080A168A15B1270A1283
:101AA2008A15730883120313BF007208BE003E0832
:101AB200AE00AF01B001B1012E08B4072F08031127
:101AC2000318013E0319662DB507300803110318E8
:101AD200013E03196D2DB607310803110318013EAB
:101AE2000319742DB7073F08AE00AF01B001B10171
:101AF2002E08BA072F0803110318013E0319822D7D
:101B0200BB07300803110318013E0319892DBC07D6
:101B1200310803110318013E0319902DBD0728084F
:101B2200F2002A080A168A15B1270A128A157308C2
:101B320083120313BF007208BE003E08AE00AF015D
:101B4200B001B1012E08B4072F0803110318013E9A
:101B52000319AC2DB507300803110318013E031910
:101B6200B32DB607310803110318013E0319BA2D2C
:101B7200B7073F08AE00AF01B001B1012E08BA07A6
:101B82002F0803110318013E0319C82DBB073008A3
:101B920003110318013E0319CF2DBC0731080311AD
:101BA2000318013E0319D62DBD070830AE000310FD
:101BB200B40DB50DB60DB70DAE0BD82D2708F2003A
:101BC2002A080A168A15B1270A128A15730883127F
:101BD2000313BF007208BE003E08AE003F08AF000C
:101BE200B001B1012E08B4072F0803110318013EFA
:101BF2000319FC2DB507300803110318013E031920
:101C0200032EB607310803110318013E03190A2EE9
:101C1200B7072608F2002B080A168A15B1270A12FE
:101C22008A15730883120313BF007208BE003E08B0
:101C3200AE003F08AF00B001B1012E08B4072F0873
:101C420003110318013E0319272EB50730080311AB
:101C52000318013E03192E2EB6073108031103188B
:101C6200013E0319352EB7070830AE000310B40D3C
:101C7200B50DB60DB70DAE0B372E2608F2002A08A9
:101C82000A168A15B1270A128A15730883120313DA
:101C9200BF007208BE003E08AE003F08AF00B001B0
:101CA200B1012E08B4072F0803110318013E0319CE
:101CB2005B2EB507300803110318013E0319622E8B
:101CC200B607310803110318013E0319692EB7073D
:101CD2002708F2002C080A168A15B1270A128A155B
:101CE200730883120313BF007208BE003E08AE00E1
:101CF2003F08AF00B001B1012E08BA072F08031147
:101D02000318013E0319862EBB073008031103187E
:101D1200013E03198D2EBC07310803110318013E41
:101D22000319942EBD072808F2002B080A168A15FB
:101D3200B1270A128A15730883120313BF007208AF
:101D4200BE003E08AE003F08AF00B001B1012E0850
:101D5200BA072F0803110318013E0319B12EBB075E
:101D6200300803110318013E0319B82EBC073108CD
:101D720003110318013E0319BF2EBD072808F20004
:101D82002C080A168A15B1270A128A1573088312BB
:101D92000313BF007208BE003E08AE003F08AF004A
:101DA200B001B10108300310AE0DAF0DB00DB10D91
:101DB200FF3E031DD42E2E08BA072F080311031865
:101DC200013E0319E52EBB07300803110318013E3B
:101DD2000319EC2EBC07310803110318013E031945
:101DE200F32EBD073408AE003508AF003608B00048
:101DF2003708B10018300310B10CB00CAF0CAE0CA8
:101E0200FF3E031DFC2E2E08BA072F0803110318EC
:101E1200013E03190D2FBB07300803110318013EC1
:101E22000319142FBC07310803110318013E0319CB
:101E32001B2FBD070830AE000310B40DB50DB60D53
:101E4200B70DAE0B1D2F39083807AE00AF01AF0D2D
:101E52002E08823EBE002F080318013EFF3EBF003F
:101E62004F2F0130AE000310BA0DBB0DBC0DBD0DDE
:101E7200AE0B342FB71F3E2F3F2F402F3A140130A5
:101E8200AE000310B40DB50DB60DB70DAE0B422F5B
:101E9200FF30BE070318BF0AFF30BF07BC1F522F17
:101EA200532F322FB801B71F572F582F742FFF30DF
:101EB2003405AE00FF303505AF00FF303605B00007
:101EC2007F303705B100310830042F042E04031986
:101ED2006B2F6C2F6F2FB801B80A742F3A1C722F18
:101EE200732F742F6C2F38080319782F792FAA2F8C
:101EF2000130BA07003003180130BB070030031865
:101F02000130BC07003003180130BD073D1C8A2F89
:101F12008B2FAA2F3A08AE003B08AF003C08B00056
:101F22003D08B1000130B200310DB10CB00CAF0C64
:101F3200AE0CB20B952F3108BD003008BC002F0843
:101F4200BB002E08BA000130BE070318BF0A0030DA
:101F5200BF073F08803AFF0080307F02031DB32F86
:101F6200FF303E02031CB62FB72FC22F7F308312E1
:101F72000313BD008030BC000030BB000030BA004B
:101F8200F32F831203133F08803AFF0080307F0251
:101F9200031DCD2F01303E020318D02FD12FDD2F8C
:101FA200003083120313BD000030BC000030BB00C0
:101FB2000030BA00B301F32F831203133E08B900B5
:101FC200FF30BA05FF30BB057F30BC050030BD05D0
:101FD200391CEC2FED2FEE2FBC173908AE00031081
:101FE2002E0CBD003308FF007F08BD043D08A90088
:101FF2003C08A8003B08A7003A08A6000800FF1BFF
:102002000A2883137F1883170008840A0319FF0A1A
:10201200080010308A000408840A8207003454340D
:1020220065346D34703465347234613474347534AB
:102032007234653420346934733420342D343E34A0
:10204200203425342E3433346634633420340D3452
:102052000A3400342034543465346D3470346534B9
:1020620072346134743475347234653420344934D2
:1020720073342034003469346E34663400346E3480
:0620820061346E340034ED
:10208A00F51B482849284A2859287209F200730979
:10209A00F3007409F4007509F500F20A0319F30A4A
:1020AA000319F40A0319F50A080083120313A50099
:1020BA00A301A40176282208A000A1012008F200A9
:1020CA002108F3007A08F4000A168A1103220A1674
:1020DA008A11013083120313A3070318A40A0030DC
:1020EA00A40723082507A0002008840083170008F6
:1020FA00A2002208031D8228832860280800831270
:10210A000313DE00831603134F0883120313DF0041
:10211A009C285F3083160313CD005008CE0083122B
:10212A0003135E080A168A11C7240A168A11831233
:10213A0003135F0884000A168A110A200A168A11F4
:10214A00003A031DA928AA288E2883160313CF0153
:10215A00D001080083120313AB00A81FB528B628C4
:10216A00B828A701A801A901AA01D0282030F200A5
:10217A000030F300831203132B08F4000A168A11A5
:10218A0003220A168A11013083120313A9070318BE
:10219A00AA0A0030AA072A08803AFB002808803ACF
:1021AA007B02031DDA2827082902031CDD28DE2802
:1021BA00BB28831203132B08FA0026080A168A1171
:1021CA005A200A168A110800F60076080F39F40018
:1021DA007608F039F5008312031386167508F300A2
:1021EA0004300310F30CFF3E031DF62873080A1689
:1021FA008A1520270A168A11831203130616A63097
:10220A00F300F30B06290000831203130612A6300B
:10221A00F300F30B0E29000074080A168A1520270A
:10222A000A168A11831203130616A630F300F30B5B
:10223A001C290000831203130612A630F300F30BC5
:10224A00242900000800F7007703031D2D292E29F1
:10225A004A2975087F3EFA007A08F600043003100E
:10226A00F60CFF3E031D34297608F9007A080F3967
:10227A00F80079080A128A11E8270A168A117808DA
:10228A000A128A11E8270A168A1102307706031DF4
:10229A004F2950296C297508BF3EFA007A08F600C2
:1022AA0004300310F60CFF3E031D56297608F90088
:1022BA007A080F39F80079080A128A11E8270A16EB
:1022CA008A1178080A128A11E8270A168A11080060
:1022DA0083120313A001A101962920087707FA00A7
:1022EA007808F9000318F90AA01F7C29F90379086C
:1022FA00FB007B0883120313FF007A0884000A1686
:10230A008A1100200A168A110A168A11E9200A1669
:10231A008A11013083120313A0070318A10A00309F
:10232A00A10720087707FA007808F9000318F90AC4
:10233A00A01FA029F9037908FB007B088312031365
:10234A00FF007A0884000A168A1100200A168A11E8
:10235A00003A031DB129B22972290800003072051A
:10236A0083120313A00000307305A10080307405A6
:10237A00A2007F307505A30023082204210420044B
:10238A00031DC829C929D1290030F5000030F400FD
:10239A000030F3000030F20000307605A000003073
:1023AA007705A10080307805A2007F307905A30067
:1023BA002308220421042004031DE429E529ED2928
:1023CA000030F9000030F8000030F7000030F60065
:1023DA0079087506031DFB2978087406031DFB2975
:1023EA0077087306031DFB29760872060319FE296E
:1023FA00FF29012A0310022A03140800740803198A
:10240A00072A082A0D2A7408031D0C2A0D2A142AE1
:10241A0072080A128A11FE270A168A115A2A7408A1
:10242A00093E840083130008F500840A0008F600B8
:10243A00750876040319222A232A412A7408093EB8
:10244A0084000008F500840A0008F6007408023EB9
:10245A0084000008F700840A0008F8007808803A27
:10246A00F9007608803A7902031D3D2A7508770239
:10247A000318402A412A5A2A7408023E8400831308
:10248A000008F5007408840000087507F60076084D
:10249A0084007208831780007408023E84000130A9
:1024AA0083138007840A0318800A0800831203131F
:1024BA00A300A101A2012308840083130008840059
:1024CA000A168A110A200A168A112A3A031D6E2A46
:1024DA006F2AA12A0130FF00230884007F088007A1
:1024EA00780884000008FF00023080077F08840013
:1024FA000008A100840A0008A200B22A2208F300F8
:10250A002108F2000A30F4000030F5000A168A1594
:10251A0066270A168A118312031320087207A1007C
:10252A000030031801307307A2000130FF002308AE
:10253A0084007F088313800723088400000884002E
:10254A000A168A110A200A168A11D03EA0000A30F9
:10255A002002031CB12AB22A832A2208F900210880
:10256A00F80008008316031386018612061200304B
:10257A000A168A1520270A168A112730F600F5301E
:10258A00F500F50BC62AF60BC62AA630F500F50BA0
:10259A00CC2A000003300A128A11E8270A168A1187
:1025AA000730F6007D30F500F50BD92AF60BD92A4B
:1025BA0003300A128A11E8270A168A113130F50007
:1025CA00F50BE52AE82A03300A128A11E8270A16C7
:1025DA008A1102300A128A11E8270A168A11023071
:1025EA000A128A11E8270A168A1108300A128A1171
:1025FA00E8270A168A1100300A128A11E8270A16F1
:10260A008A110C300A128A11E8270A168A11003038
:10261A000A128A11E8270A168A1106300A128A1142
:10262A00E8270A168A1108000310740D750DFB00BD
:10263A007B08031D212B222B2B2B0030F5000030A9
:10264A00F4000030F3000030F2008E2B7208F6001E
:10265A007308F7007408F8007508F9001F300310B2
:10266A00F90CF80CF70CF60CFF3E031D342B760818
:10267A00FA00F417FF30F205FF30F305FF30F405D6
:10268A000030F5059630FB02FB1F4C2B4D2B672BB8
:10269A007B08803A973E0318532B542B552B222B39
:1026AA0001300310F50CF40CF30CF20CFF3E031D81
:1026BA00562B0130FF007F08FB07031D652B662B95
:1026CA00552B7E2B20307B02031C6C2B6D2B792B18
:1026DA00222B0130F6000310F20DF30DF40DF50D67
:1026EA00F60B702B0130FB027B08031D7D2B7E2B22
:1026FA006E2B7A080319822B832B8E2BF209F3098E
:10270A00F409F509F20A0319F30A0319F40A031979
:10271A00F50A08000A168A15BE260A168A110A162A
:10272A008A11B7220A168A110A168A15B1260A16BA
:10273A008A1103300A168A15D8270A168A113E30DA
:10274A0083120313A900F930A800DB30A700233055
:10275A00A600831603136608F2006708F300F40163
:10276A00F50100300A128A112E270A168A117508F5
:10277A0083120313AD007408AC007308AB0072082F
:10278A00AA000A128A15BB240A168A118312031395
:10279A00290883160313E1008312031328088316FA
:1027AA000313E00083120313270883160313DF00C1
:1027BA0083120313260883160313DE000130D100A7
:1027CA006108D5006008D4005F08D3005E08D20013
:1027DA0090300A168A15FF260A168A11F501F50A9B
:1027EA0001300A168A1128210A168A111C30F700AC
:1027FA008030F8000A168A116D210A168A11F5012D
:10280A00F50A02300A168A1128210A168A1190300E
:10281A00F7000130F8000A168A116D210A168A118A
:10282A000D3083120313EF00FB30EE00EE0B1B2C6E
:10283A00EF0B1B2C9E2B0A128A110C2800308312D4
:10284A0003134005C80000304105C9008030420525
:10285A00CA007F304305CB004B084A0449044804A8
:10286A00031D382C392C412C0030C3000030C20023
:10287A000030C1000030C00000304405C8000030FC
:10288A004505C90080304605CA007F304705CB00A0
:10289A004B084A0449044804031D542C552C5D2C4A
:1028AA000030C7000030C6000030C5000030C40048
:1028BA00C31F602C612C852C0030C8000030C90071
:1028CA000030CA008030CB004008C8024108031C0F
:1028DA00410F702C712CC9024208031C420F762C3E
:1028EA00772CCA024308031C430F7C2C7D2CCB0295
:1028FA004B08C3004A08C2004908C1004808C00082
:10290A00C71F882C892CAD2C0030C8000030C900A4
:10291A000030CA008030CB004408C8024508031CB6
:10292A00450F982C992CC9024608031C460F9E2C69
:10293A009F2CCA024708031C470FA42CA52CCB02C4
:10294A004B08C7004A08C6004908C5004808C40021
:10295A008030C3068030C70647084302031DBF2CD8
:10296A0046084202031DBF2C45084102031DBF2C25
:10297A00440840020318C22CC32CC52C0310C62CD1
:10298A000314080083120313DB00831603134D0894
:10299A0084008313000884000A168A110A200A1682
:1029AA008A11253A031DDA2CDB2CAE2D0130FF00EB
:1029BA004D0884007F088007E201E301031000301C
:1029CA0003180130E800FF30E400FF30E5004D084D
:1029DA008400000884000A168A110A200A168A113D
:1029EA002E3A031DF92CFA2C0E2D0130FF004D084A
:1029FA0084007F0880074E08F8004D080A168A11DD
:102A0A005B220A168A11790883160313E5007808EF
:102A1A00E4004D0884008313000883120313DD00C9
:102A2A005D0884000A168A110A200A168A11DC0037
:102A3A00282D0130FF007F08DD07332D6C30DC00C4
:102A4A00332DDC01332D5C084C3A03191E2D2A3A2A
:102A5A000319232D0A3A03191E2D262D5D08840019
:102A6A000A168A110A200A168A11663A031D3E2D91
:102A7A003F2DA42D702D831603134E0884000008E1
:102A8A00FF00043080077F088400000883120313C4
:102A9A00D700840A0008D800840A0008D900840AEA
:102AAA000008DA00782D831603134E088400000804
:102ABA00FF00043080077F08840000088312031394
:102ACA00D700840A0008D800840A0008D900840ABA
:102ADA000008DA00782D5C084C3A0319582D203A80
:102AEA000319402D782D831603134D088400831291
:102AFA0003135D08013E8000992D5A08CF0059083A
:102B0A00CE005808CD005708CC005D0884000A168C
:102B1A008A110A200A168A11D0005B080A168A113D
:102B2A00D7260A168A11C72D5D0884000A168A114B
:102B3A000A200A168A11663A0319822DA42D013039
:102B4A00FF00831603134D0884007F088313800750
:102B5A00C72D4D088400000884000A168A110A202D
:102B6A000A168A1183120313D500D6015508F200FA
:102B7A005608F3005B08F4000A168A1103220A16A3
:102B8A008A11A42D0800831603135908831203130C
:102B9A00C50083160313580883120313C40083164F
:102BAA000313570883120313C3008316031356082B
:102BBA0083120313C2003508C5003408C400330861
:102BCA00C3003208C2004208B6004308B7004408EE
:102BDA00B8004508B90017300310B90CB80CB70C87
:102BEA00B60CFF3E031DF12DFF303605BA0000304A
:102BFA003705BB003A08813EC0003B080318013E76
:102C0A00FF3EC1004108803AFF0080307F02031D69
:102C1A00102E17304002031C132E142E152ED62EFA
:102C2A0083120313C11B1A2E1B2E8B2E400AFF0080
:102C3A00FF30B600FF30B7007F30B8000030B9006F
:102C4A002B2E390DB90CB80CB70CB60CFF0B262E6F
:102C5A003908BF003808BE003708BD003608BC0076
:102C6A003C084205B6003D084305B7003E08440546
:102C7A00B8003F084505B900390838043704360456
:102C8A00031D482E492E4A2E142E4208B600430828
:102C9A00B7004408B8004508B9001F300310B90C42
:102CAA00B80CB70CB60CFF3E031D532E3908380476
:102CBA00370436040319622E632E7A2E3C08C207A3
:102CCA003D0803110318013E03196C2EC3073E0881
:102CDA0003110318013E0319732EC4073F08031199
:102CEA000318013E03197A2EC5073C09B6003D09AF
:102CFA00B7003E09B8003F09B9003608C2053708CF
:102D0A00C3053808C4053908C505CE2E4208B600E1
:102D1A004308B7004408B8004508B9001F3003103B
:102D2A00B90CB80CB70CB60CFF3E031D942E39082B
:102D3A00380437043604031DA32EA42EAD2E00300A
:102D4A00C5000030C4000030C3000030C200CE2EDF
:102D5A004208B6004308B7004408B8004508B9005D
:102D6A0001300310B60DB70DB80DB90DFF3E031DA6
:102D7A00B62E39083804370436040319C52EC62E70
:102D8A00CE2EBF30C5008030C4000030C3000030F2
:102D9A00C2004508B5004408B4004308B30042081D
:102DAA00B200080083160313AF00C2018312031393
:102DBA004F0883160313C800831203134E088316A1
:102DCA000313C700831203134D0883160313C600A7
:102DDA00831203134C0883160313C5004808831291
:102DEA000313C30083160313470883120313C20095
:102DFA0083160313460883120313C10083160313B1
:102E0A00450883120313C0000030C7000030C60013
:102E1A000030C5000030C4000A168A1123240A169D
:102E2A008A110318192F1A2F352F83160313C2017B
:102E3A00C20A4808F5004708F4004608F3004508A6
:102E4A00F2000A168A15A6260A168A11750883162A
:102E5A000313C8007408C7007308C6007208C500C7
:102E6A0083160313C301C4016308B3006208B200E6
:102E7A0042080319412F422F522F4208031D462FA1
:102E8A00472F4C2F2B30A6000030A700502F2D3093
:102E9A00A6000030A7002608C2004808F500470827
:102EAA00F4004608F3004508F2000A128A150120C8
:102EBA000A168A1172037304031D642F652FA82F43
:102ECA0083160313420803196B2F6C2F7C2F4208B9
:102EDA00831203179000FF3083160313B2070318F7
:102EEA00B30AFF30B3070130C3000030C4002D30ED
:102EFA00F2004308103E0A168A15E4260A168A11B9
:102F0A00FD3083160313B2070318B30AFF30B30761
:102F1A00103083120313A600831603133308831297
:102F2A000313A80083160313320883120313A7009E
:102F3A00831603132F080A168A11AF200A168A115C
:102F4A000A128A112D2F831603134808F500470821
:102F5A00F4004608F3004508F2000A128A15012017
:102F6A000A168A1172087304031DBC2FBF2F0A1296
:102F7A008A112D288316031342080319C52FC62F59
:102F8A00D62F4208831203179000FF3083160313CB
:102F9A00B2070318B30AFF30B3070130C300003089
:102FAA00C4003130F2004308103E0A168A15E4269E
:102FBA000A168A11FD3083160313B2070318B30ADF
:102FCA00FF30B307103083120313A60083160313CE
:102FDA00330883120313A8008316031332088312DB
:102FEA000313A700831603132F080A168A11AF20AA
:062FFA000A168A11A52F42
:103D3C0064008001840A04060319003404069F2ED3
:103D4C0075087404730472040319AD2EAE2EB02ED4
:103D5C008030F506080000300A128A11E8270A168E
:103D6C008A1501300A128A11E8270A168A150800EA
:103D7C005930FF007F08831203139F04831603132B
:103D8C009F17831203130C13831603130C170B17B3
:103D9C008B170800831203130C1FD52ED62EDD2E85
:103DAC000C131E0883160313E7001E08E6007108A7
:103DBC008A00700E8300FE0E7E0E0900F40074085B
:103DCC00F3000130F207FF30720784000A168A11E3
:103DDC000A200A168A15FF00730884000130F307C5
:103DEC007F08831780000008031DFD2EFE2EE72E92
:103DFC00080083120313E100D230E2006108E300F3
:103E0C00E501E601EC01ED01831603135108CF0027
:103E1C006230D00063300A168A1184200A168A1583
:103E2C008312031365086107E000600884008317A0
:103E3C0080010800F200721C242F252F292F8312D9
:103E4C00031306142C2F831203130610F21C2F2FAE
:103E5C00302F322F8614332F8610721D362F372FAA
:103E6C00392F06153A2F0611F21D3D2F3E2F402FEC
:103E7C008615412F86110800803083120313C30668
:103E8C004708F5004608F4004508F3004408F20022
:103E9C004308F9004208F8004108F7004008F60012
:103EAC000A128A1563220A168A15750883120313DF
:103EBC00C3007408C2007308C1007208C000080077
:103ECC00F601F701721C6B2F6C2F722F7408F6071A
:103EDC000318F70A7508F70701300310F40DF50DF8
:103EEC00FF3E031D732F01300310F30CF20CFF3E49
:103EFC00031D7A2F72087304031D852F862F682FDC
:103F0C007708F3007608F2000800F6007208F80053
:103F1C007608F700A22F7808840083170008F500B4
:103F2C000130FF007F08F8077708840075088000CF
:103F3C000130FF007F08F7070130F3020030031C4B
:103F4C00F403F402730A031DAF2F740A031DAF2F81
:103F5C00B02F912F0800FA00F601F7017208F40057
:103F6C00F5017408F8007508F9007A1CBE2FBF2FF4
:103F7C00C52F7808F6070318F70A7908F7070130F8
:103F8C000310F80DF90DFF3E031DC62F0310FA0C9C
:103F9C007A08031DD22FD32FBB2F7708F300760896
:103FAC00F2000800F300083073020318DE2FDF2F35
:103FBC00FB2FC730FF007F08831203139F05730884
:103FCC00F20002300310F20DFF3E031DE82F031028
:103FDC00720DFF007F089F040930F200F20BF42FE2
:103FEC00F72F831203131F15FF2F83160313E601FC
:043FFC00E7010800D1
:02400E00713F00
:00000001FF
