:060000000A128A11F62F1E
:100E940041340A128A1174270A128A118316031321
:100EA400111408000A128A1174270A128A1183166F
:100EB4000313111508000A128A1174270A128A11E1
:100EC400831603139116111608001830FF007F08CB
:100ED40083160313870409309300831203139415B4
:100EE40094160800831603131419792F7A2F742F7C
:100EF40011081F39031D7F2F802F742F0800F00065
:100F04000A128A1174270A128A11700883120313B1
:100F140093000A128A1174270A128A1108000330F6
:100F2400FF007F08831603138604831203138601CC
:100F340083160313880183120313880108000A121D
:100F44008A1174270A128A118316031391150A123F
:100F54008A1174270A128A11831203131308F000EA
:100F64000A128A115D270A128A11700808000A12EF
:100F74008A1191270A128A110A128A1167270A1202
:100F84008A1183120313061CC82FC92FCB2F41309B
:100F9400F300861CCE2FCF2FD12F6130F3000A121D
:100FA4008A114B270A128A1173080A128A1181279F
:100FB4000A128A110A128A11A1270A128A118312AB
:100FC400031388000A128A1154270A128A118230E4
:100FD400F200DD30F100F10BED2FF20BED2FF22FCB
:100FE400C32F0A128A1100280A128A114A270A12E8
:0C0FF4008A11F30083010A128A11B92F40
:02400E00713F00
:00000001FF
