:060000000A128A1110280B
:10000800FE00030EF0000408F1000A08F2007F0861
:10001800F3000A128A118B290A128A1113280A126C
:100028008A1115220A128A11F900831320308400DC
:1000380035300A128A110D220A128A11F801830139
:100048000A128A11DF288316031386018612061204
:1000580000300A128A11B0210A128A11273083123D
:100068000313B600F430B500B50B3828B60B3828A2
:100078000000A53083120313B500B50B41284428AE
:1000880003300A128A11EA210A128A1107308312F0
:100098000313B6007C30B500B50B5028B60B5028BA
:1000A800000003300A128A11EA210A128A1131303B
:1000B80083120313B500B50B5F2803300A128A11A7
:1000C800EA210A128A1102300A128A11EA210A1256
:1000D8008A1102300A128A11EA210A128A1108309A
:1000E8000A128A11EA210A128A1100300A128A11A8
:1000F800EA210A128A110C300A128A11EA210A121C
:100108008A1100300A128A11EA210A128A1106306D
:100118000A128A11EA210A128A11080083120313AB
:10012800B6003603031D99289A28B82877087F3E19
:10013800B9003908B50004300310B50CFF3E031DA3
:10014800A0283508B80039080F39B70038080A124E
:100158008A11EA210A128A118312031337080A1234
:100168008A11EA210A128A11023083120313360611
:10017800031DBF28C028DE287708BF3EB90039080C
:10018800B50004300310B50CFF3E031DC628350822
:10019800B80039080F39B70038080A128A11EA215D
:1001A8000A128A118312031337080A128A11EA21E4
:1001B8000A128A1108000A128A11D2210A128A1117
:1001C8000A128A1127200A128A110A128A11002299
:1001D8000A128A11F701F70A01300A128A119220CD
:1001E8000A128A1183120313071CFB28FC28092909
:1001F8000A128A1100220A128A11F701F70A01303D
:100208000A128A1192200A128A11831203132003F8
:10021800031D0F291029F628F701F70A01300A12E1
:100228008A1192200A128A1121300A128A11662133
:100238000A128A1183120313A001F6280A128A11DE
:10024800102883120313B70037080F39B500370891
:10025800F039B60086163608F50004300310F50CA0
:10026800FF3E031D322975080A128A11B0210A12AD
:100278008A11831203130616A630F500F50B4229DE
:100288000000831203130612A630F500F50B4A2965
:1002980000008312031335080A128A11B0210A12CA
:1002A8008A11831203130616A630F500F50B5A2996
:1002B8000000831203130612A630F500F50B62291D
:1002C8000000080083120313B800B901BA017F299E
:1002D80039083807F6007608840000080A128A11DF
:1002E80025210A128A11013083120313B907031852
:1002F800BA0A0030BA0739083807F60076088400C9
:1003080083130008031D89298A296C290800831290
:1003180003138C1D90299129A5298C117808213E59
:1003280084001308831380000130FF007F08F8075A
:1003380079087802031CA129A229A529A001A00AED
:10034800F8017308FF0072088A0071088400700EB3
:100358008300FE0E7E0E0900F400741CB429B52932
:10036800B929831203130614BC2983120313061038
:10037800F41CBF29C029C2298614C3298610741DFC
:10038800C629C729C9290615CA290611F41DCD2968
:10039800CE29D0298615D129861108008312031386
:1003A8001410941014159411941614128316031330
:1003B800141394138715071687121F109F101F1503
:1003C8009F1185168C150B178B170800F6008312E2
:1003D8000313861276080A128A11B0210A128A11AA
:1003E800831203130616A630F500F50BF929000051
:1003F800831203130612080000300A128A11EA2138
:100408000A128A1101300A128A11EA210A128A1183
:10041800080064008001840A0406031900340406F5
:040428000E2A09345B
:02400E00713F00
:00000001FF
