:060000000A128A11EE2F26
:100E7C007E088A007F0882000A128A113E270A1215
:100E8C008A118000840A04087D0603190034FF0AC5
:100E9C000319FE0A422F83160313860183120313D0
:100EAC0086010630FF007F08831603139F04FF3072
:100EBC0085008312031385018316031307100800A2
:100ECC0080348C349834A534B034BC34C634D0342B
:100EDC00DA34E234EA34F034F534FA34FD34FE34E6
:100EEC00FF34FE34FD34FA34F534F034EA34E234B1
:100EFC00DA34D034C634BC34B034A53498348C34A1
:100F0C008034733467345A344F34433439342F3487
:100F1C0025341D3415340F340A34053402340134AD
:100F2C0000340134023405340A340F3415341D34C2
:100F3C0025342F34393443344F345A3467347334B2
:100F4C000A128A1151270A128A11F201F301F401D3
:100F5C00F50183120313051CB42FB52FB92F2A30BA
:100F6C00F4000730F500851CBC2FBD2FC12F1730A6
:100F7C00F4001030F500051DC42FC52FC92F843087
:100F8C00F4000430F500851DCC2FCD2FD12F44302B
:100F9C00F4002630F5007408F2070318F30A7508FC
:100FAC00F3077308F1007208F0000A300310F10C1B
:100FBC00F00CFF3E031DDC2F7008203E84008313D1
:100FCC000008860001308706AF2F0A128A1100280C
:100FDC0083136030FD000730FE006630FF002030C8
:100FEC0084000A128A1142270A128A1183010A12FA
:040FFC008A11A62F81
:02400E00723FFF
:00000001FF
