:060000000A128A110C280F
:10000800FE00030EF0000A08F1000A128A114328C4
:100018000A128A110F2883010A128A112C28F0303B
:10002800FF007F08831603138605F030FF007F0862
:10003800831203138605F030FF007F08831603132D
:100048008805F030FF007F08831203138805080035
:100058000A128A1113200A128A110A128A115F20C1
:100068000A128A110A128A1153200A128A1183125B
:1000780003130E0886003B280A128A110C288312E3
:1000880003130C1D482849284C28150888000C1112
:1000980071088A00700E8300FE0E7E0E090005307E
:1000A800FF007F088312031397040B178B1783161F
:1000B80003130C150800831203138E018F0190148B
:0C00C80090151012901210111014080076
:02400E00713F00
:00000001FF
