:060000000A128A1110280B
:10000800FE00030EF2000408F3000A08F4007F085B
:10001800F5000A128A111A280A128A111328F60101
:10002800F701F80183010A128A116F28831203135A
:100038000C1C1F2820284D280C102E287708860015
:100048000130FF007F08F7073B287708860001305A
:10005800F7023B287808F000F1017108003A03190B
:10006800362829287008003A031922282928770AEF
:1000780003193F28402845287708031D44284528A8
:1000880049280130FF007F08F806FF308F007830DC
:100098008E007508FF0074088A0073088400720EC9
:1000A8008300FE0E7E0E09008312031310109010B9
:1000B8009015CF30FF007F089005101483160313A6
:1000C8000C14831203130C100B178B17FF308F00BF
:1000D80078308E00080083160313860183120313F9
:1000E80086010A128A1158200A128A117A280A12DD
:0400F8008A11102831
:02400E00713F00
:00000001FF
