:060000000A128A11EE2F26
:100E640083120313050808007E088A007F088200A5
:100E74000A128A1136270A128A118000840A040889
:100E84007D0603190034FF0A0319FE0A3A2F83165C
:100E9400031386018312031386010630FF007F08C3
:100EA400831603139F04FF30850083120313850107
:100EB400831603130710080080348C349834A53447
:100EC400B034BC34C634D034DA34E234EA34F034E6
:100ED400F534FA34FD34FE34FF34FE34FD34FA3490
:100EE400F534F034EA34E234DA34D034C634BC3481
:100EF400B034A53498348C348034733467345A3421
:100F04004F34433439342F3425341D3415340F34DD
:100F14000A34053402340134003401340234053413
:100F24000A340F3415341D3425342F343934433402
:100F34004F345A34673473340A128A1149270A1217
:100F44008A11F201F301BD2F2A30F4000730F500B5
:100F5400CF2F1730F4001030F500CF2F8430F40079
:100F64000430F500CF2F4430F4002630F500CF2FA5
:100F7400F401F501CF2F0A128A1132270A128A11BD
:100F8400013A0319A62F033A0319AB2F063A0319A2
:100F9400B02F0C3A0319B52FBA2F7408F2070318AF
:100FA400F30A7508F3077308F1007208F0000A30B9
:100FB4000310F10CF00CFF3E031DDA2F7008203EE5
:100FC400840083130008831203138600013087060C
:100FD400BD2F0A128A11002883136030FD000730E8
:100FE400FE005E30FF00203084000A128A113A2786
:0C0FF4000A128A1183010A128A119E2F32
:02400E00723FFF
:00000001FF
