:060000000A128A110E280D
:10000800FE00030EF0000A08F1007F08F2000A1251
:100018008A1116280A128A111128F30183010A127B
:100028008A113528831203130C1D1B281C282C2821
:100038000130FF007F08F3070A307306031D2528E7
:1000480026282B280130FF007F088606F3010C11B3
:100058007208FF0071088A00700E8300FE0E7E0E83
:1000680009000A128A1167200A128A110A128A11D3
:100078005A200A128A110A128A1148200A128A1171
:1000880044280A128A110E280B30FF007F088312B9
:1000980003139704831603130C150B178B17C33020
:1000A800831203139600503095000800FD30FF00BE
:1000B8007F088312031390059015CF30FF007F0847
:1000C800900510140800FE30FF007F088316031304
:1000D8008605FE30FF007F0883120313860508009B
:02400E00713F00
:00000001FF
