:100000000A128A11FC2F00308A000408840A820731
:1000100000343134323433343434353437343834D2
:020020000034AA
:100E0C00F000700883120313930008000530FF00F4
:100E1C007F08831603138604FA30FF007F088312C1
:100E2C0003138605080083120313941114119410F4
:100E3C00141094161412831603131413941387119D
:100E4C00071687120800F3007308F200312F0130E7
:100E5C00FF007F08F3077308840083130008031D49
:100E6C00382F392F2D2F72087302F000F101F01B6F
:100E7C00F1030800F2007208F1000130F007FF30B6
:100E8C00700784000A128A1103200A128A11FF00CB
:100E9C00710884000130F1077F088313800000087B
:100EAC00031D592F5A2F432F0800F400F301762FFE
:100EBC0073087407F1007108840000080A128A1183
:100ECC0006270A128A118230F200DD30F100F10B94
:100EDC006D2FF20B6D2F722F0130FF007F08F3077F
:100EEC0073087407F1007108840083130008031D54
:100EFC00802F812F5E2F0800F90079080A128A11C1
:100F0C0029270A128A117008F6007608F400F501F8
:100F1C007408F7007508F800F81F952F962F972F77
:100F2C00AD2F77087907F400740884008313000848
:100F3C00FF0077087907F500750A84007F088000A8
:100F4C00FF30F7070318F80AFF30F807922F7908DB
:100F5C0084007608303E8313800008000A128A1140
:100F6C0019270A128A110A128A110C270A128A11DD
:100F7C0083120313061CC32FC42FDF2F0130F00084
:100F8C0020300A128A1140270A128A1120300A12C4
:100F9C008A1182270A128A110230FC00C730FB002A
:100FAC008830FA00FA0BD82FFB0BD82FFC0BD82F5C
:100FBC00000083120313061DE42FE52FBE2F2030F3
:100FCC000A128A115B270A128A110230FC00C73000
:100FDC00FB008830FA00FA0BF12FFB0BF12FFC0B06
:100FEC00F12F0000BE2F0A128A11002883010A1269
:040FFC008A11B42F73
:02400E00713F00
:00000001FF
