:100000000A128A11ED2FFF1B0D2883137F18831707
:100010000008840A0319FF0A080000308A00040857
:10002000840A820700343134323433343434353482
:0A00300036343734383439340034E4
:100A9E00F000700883120313930008000730FF0064
:100AAE007F08831603138604F830FF007F08831235
:100ABE000313860508008312031394111411941066
:100ACE00141094161412831603131413941387110F
:100ADE00071687120800F5018D2D7508F300F40135
:100AEE0073087107840074080318740A7207FF00F4
:100AFE000A128A1103200A128A110A128A114F252C
:100B0E000A128A110130FF007F08F5077508F300FD
:100B1E00F40173087107840074080318740A7207CD
:100B2E0083120313FF000A128A1103200A128A117C
:100B3E00003A031DA32DA42D742D8230F400DD3058
:100B4E00F300F30BA82DF40BA82DAD2D0800F0002B
:100B5E007008840083130008F100840A0008F20074
:100B6E008312031337083804031DBE2DBF2DC32D6A
:100B7E007030B7000130B800003072020430031933
:100B8E0071020318CB2DCC2DD02D0430F100003086
:100B9E00F20071083702F3007208031C720A380261
:100BAE00F40001307402103003197302031CE02D9F
:100BBE00E12DEB2D38087402031DE72D3708730263
:100BCE00031CEA2DEB2DF22D0C30BD000030BE00C3
:100BDE00F001F101FA2D7308B7007408B800370858
:100BEE00F0003808F10008000A128A1162250A1274
:100BFE008A110A128A1155250A128A110A30831295
:100C0E000313A0000030A1000A128A1151260A1205
:100C1E008A11831203132008B1002108B200831237
:100C2E000313061C1B2E1C2E2F2E0130B1008030FC
:100C3E00B200023083120313B000C730AF0087300A
:100C4E00AE00AE0B282EAF0B282EB00B282E2F2E5B
:100C5E0083120313061D342E352E162E3108F10085
:100C6E003208F2000A128A1172250A128A11023013
:100C7E0083120313B000C730AF008730AE00AE0B47
:100C8E00462EAF0B462EB00B462E4D2E162E0A12AA
:100C9E008A11002883120313A801A9012008210438
:100CAE00031D5A2E5B2E612E0130A0070318A10AD8
:100CBE000030A10700302102023003192002031870
:100CCE00692E6A2E6F2E0230A0000030A100852EF4
:100CDE002108A3002008A200A209A30900302302C4
:100CEE0002300319220203187D2E7E2E852E0C3023
:100CFE00BD000030BE00A001A1010A2F2108F100A5
:100D0E002008F0000A128A110B270A128A11831288
:100D1E000313AA000030AB002A082B04031D982EE3
:100D2E00992E062F3B083902A2003C08031C3C0AF0
:100D3E003A02A30021082302031DA72E2008220237
:100D4E000318AA2EAB2EDC2E2008023EA40021088A
:100D5E000318013E003EA50024300A128A11AE256A
:100D6E000A128A11700883120313AC007108AD00C9
:100D7E002C082D04031DC42EC52EC62E822E3A0815
:100D8E002D06031DCC2E39082C060319CF2ED02E7E
:100D9E00D42E2C08BB002D08BC0024082C07B9004B
:100DAE0025080318250A2D07BA003B08AA003C089F
:100DBE00AB002A08A6002B08A7002608840083177C
:100DCE00271C831320088000840A2108800002302B
:100DDE00A6070318A70A0030A7072608AA002708A7
:100DEE00AB002008023EA20021080318013E003E7F
:100DFE00A3002208BB070318BC0A2308BC072A0855
:100E0E00A0002B08A1000800FD01F801FA018312D1
:100E1E0003133F08031D142F152F172F0030EC2F2F
:100E2E003F08FC00802F7C08840083130008F2002A
:100E3E00840A0008F30071087306031D282F70083A
:100E4E007206031D2B2F2C2F462F7A080319302FD5
:100E5E00312F3C2F7C08023E84000008FF007A08E8
:100E6E00023E84007F088000432F7C08023E8400EF
:100E7E00000883120313BF007C08023EEC2F7C088F
:100E8E0084000008F200840A0008F300730871025F
:100E9E00031D532F720870020318562F572F792FE8
:100EAE007D0803195B2F5C2F752F7D0884000008C9
:100EBE00F200840A0008F3007C0884000008F400A5
:100ECE00840A0008F50073087502031D702F72085E
:100EDE007402031C732F742F752F792F7C08FD005D
:100EEE007A08F8007C08FA007C08023E84000008AC
:100EFE00FC007C08031D842F852F1A2F7D080319F3
:100F0E00892F8A2F152F7D08023E84008313000837
:100F1E00FB007D0884000008F200840A0008F3003C
:100F2E0070087202F4007108031C710A7302F50056
:100F3E0000307502053003197402031CA72FA82F69
:100F4E00DA2F7D0884000008F200840A0008F300FE
:100F5E0070087202F4007108031C710A7302F50026
:100F6E007408FE3EF60075080318013EFF3EF700BA
:100F7E007D08840070088000840A710880007D0856
:100F8E00840000087D07023EF90079088400760887
:100F9E008000840A770880007908023E84007B086E
:100FAE0080007908FB00831203133F087D06031DA2
:100FBE00E12FE22FE52F7B08BF00EA2F7808023ED3
:100FCE0084007B0880007D08023E08008312031314
:100FDE00B301B401B501B601B701B801B901BA0147
:100FEE00BB01BC01BD01BE01BF0183010A128A1102
:020FFE00FB2DC9
:02400E00713F00
:00000001FF
