:060000000A128A110E280D
:10000800FE00030EF4000A08F5007F08F6000A1245
:100018008A1116280A128A111128F70183010A1277
:100028008A118F28831203138C1E1B281C286C2806
:100038001A08F70031307706031D232824282828BA
:100048000330FF007F08880632307706031D2D280D
:100058002E283C280030F000F1000A128A11BF2037
:100068000A128A11FB30FF007F08831203138705E9
:1000780033307706031D412842284B280B30F00007
:100088000130F1000A128A11BF200A128A11343095
:100098007706031D502851285A281630F0000230E0
:1000A800F1000A128A11BF200A128A113530770628
:1000B800031D5F28602869282030F0000330F10014
:1000C8000A128A11BF200A128A11831203138C1292
:1000D8007608FF0075088A00740E8300FE0E7E0EF7
:1000E80009008312031320187A287E288312031329
:1000F8001716812883120313171297122108A300D9
:100108002008A2000310A30CA20C0310A30CA20C3D
:100118002208950008000A128A11EB200A128A1197
:100128000A128A11F6200A128A110A128A11A720C5
:100138000A128A110A128A11D7200A128A11A328D0
:100148000A128A110E28C730831603139200FB3057
:10015800FF007F0887050C30FF007F088312031318
:10016800970412150030A000A1000A128A11752008
:100178000A128A1108007018C228C62883120313AD
:100188001716C92883120313171297127108F30060
:100198007008F2000310F30CF20C0310F30CF20CCD
:1001A8007208950008008316031318151930990072
:1001B8001812831203139817831603130717871748
:1001C8008C160B178B178312031318160800FC30B4
:1001D800FF007F0883160313880501308312031379
:1001E80088000800FC30FF007F0883120313920583
:0201F8000800FD
:02400E00713F00
:00000001FF
