:060000000A128A110C280F
:10000800FE00030EF0000A08F1000A128A112828DF
:100018000A128A110F28F20183010A128A113A285A
:100028008316031318151930990018128312031335
:10003800981783160313071787178C160B178B1738
:100048008312031318160800831203138C1E2D281D
:100058002E2833281A08F200720886008C127108BC
:100068008A00700E8300FE0E7E0E09000A128A11A5
:1000780048200A128A110A128A1114200A128A11B7
:1000880044280A128A110C28831603138601831246
:06009800031386010800BD
:02400E00713F00
:00000001FF
