:060000000A128A11EE2F26
:1000080083160313230822042104200403190D284E
:100018000E2810288030A3060800831603174F08FF
:10002800B7004E08B6004D08B5004C08B4002508C6
:10003800B7002408B6002308B5002208B400340825
:10004800A6003508A7003608A8003708A900173009
:100058000310A90CA80CA70CA60CFF3E031D2C2806
:10006800FF302605B20000302705B3003308803A78
:10007800FF0080307F02031D432896303202031CA4
:10008800462847284828932A83160317B71B4D2864
:100098004F28013050280030BC003C08031955286F
:1000A80056288928250883160313A30083160317E7
:1000B800240883160313A200831603172308831644
:1000C8000313A10083160317220883160313A00045
:1000D8000A128A1104200A128A11831603132308AC
:1000E80083160317A5008316031322088316031724
:1000F800A40083160313210883160317A30083168D
:100108000313200883160317A2003308803AFF0060
:1001180080307F02031D92287E3032020318952812
:100128009628A128003083160317A5000030A400E4
:100138000030A3000030A200932A4B30831203132F
:10014800C3000030C2000030C1000030C000831678
:100158000317250883120313C700831603172408FF
:1001680083120313C600831603172308831203138D
:10017800C50083160317220883120313C4000A1646
:100188008A11AA200A128A118312031343088316BC
:100198000317BB0083120313420883160317BA0020
:1001A80083120313410883160317B900831203133C
:1001B800400883160317B800CB3083120313C3001B
:1001C8000030C2000030C1000030C00083160317A1
:1001D8003B0883120313C700831603173A088312D8
:1001E8000313C60083160317390883120313C500C7
:1001F80083160317380883120313C4000A168A11DA
:10020800AA200A128A1183120313430883160317BC
:10021800AD0083120313420883160317AC00831240
:100228000313410883160317AB0083120313400816
:1002380083160317AA00250883120313D700831611
:100248000317240883120313D60083160317230801
:1002580083120313D500831603172208831203138E
:10026800D400831603172D0883120313DB008316AB
:1002780003172C0883120313DA00831603172B08BD
:1002880083120313D900831603172A088312031352
:10029800D8000A168A15EB240A128A11831203134E
:1002A800570883160317C0008312031356088316D2
:1002B8000317BF0083120313550883160317BE00E4
:1002C80083120313540883160317BD000030B100CE
:1002D8000030B0000030AF000030AE003F30F30017
:1002E8000030F2000030F1000030F0004008F70064
:1002F8003F08F6003E08F5003D08F4000A168A118A
:1003080008200A128A1103188A298B299629BF30D6
:1003180083160317B1008030B0000030AF00003002
:10032800AE00BB29BF30F3000030F2000030F1000E
:100338000030F000831603174008F7003F08F60066
:100348003E08F5003D08F4000A168A1108200A1232
:100358008A11031CB029B129BB293F308316031722
:10036800B1008030B0000030AF000030AE0083161E
:100378000317250883120313C300831603172408E1
:1003880083120313C200831603172308831203136F
:10039800C10083160317220883120313C0008316B3
:1003A8000317400883120313C700831603173F0877
:1003B80083120313C600831603173E088312031320
:1003C800C500831603173D0883120313C4000A16D9
:1003D8008A11AA200A128A1183120313430883166A
:1003E8000317BB0083120313420883160317BA00CE
:1003F80083120313410883160317B90083120313EA
:10040800400883160317B800310883120313C3008A
:1004180083160317300883120313C20083160317C9
:100428002F0883120313C100831603172E088312A3
:100438000313C000831603173B0883120313C70076
:10044800831603173A0883120313C600831603178B
:10045800390883120313C50083160317380883125B
:100468000313C4000A168A11AA200A128A118312D9
:100478000313430883160317C000831203134208AB
:1004880083160317BF00831203134108831603174B
:10049800BE0083120313400883160317BD003C08EF
:1004A8000319572A582A8B2A400883160313A300D6
:1004B800831603173F0883160313A2008316031736
:1004C8003E0883160313A100831603173D088316FD
:1004D8000313A0000A128A1104200A128A11831633
:1004E8000313230883160317C00083160313220877
:1004F80083160317BF0083160313210883160317F7
:10050800BE0083160313200883160317BD00400896
:10051800A5003F08A4003E08A3003D08A20008006B
:10052800831603135108E7005008E6004F08E5005A
:100538004E08E400E71BA12AA32A0130A42A0030B0
:10054800DB00FF30E405FF30E505FF30E6057F30CE
:10055800E7053F306702031DBD2A49306602031DC7
:10056800BD2A0F306502031DBD2ADB306402031D5E
:10057800BD2A0318C02AC12A0E2B3930831603134B
:100588006702031DD32A80306602031DD32A003078
:100598006502031DD32A00306402031DD32A031801
:1005A800D62AD72AD82AED2F831603135108831287
:1005B8000313D70083160313500883120313D600BE
:1005C800831603134F0883120313D50083160313EE
:1005D8004E0883120313D4000A168A1102230A1242
:1005E8008A1183120313570883160313D100831249
:1005F8000313560883160313D000831203135508F8
:1006080083160313CF0083120313540883160313AE
:10061800CE00ED2F4030831603136702031D202BF5
:100628007B306602031D202B53306502031D202BEF
:10063800D2306402031D202B0318232B242B022DF8
:100648004030831603136702031D362B16306602EB
:10065800031D362BCB306502031D362BE4306402B4
:10066800031D362B0318392B3A2B322C8316031310
:100678005B080319402B412BBF2B5108831203132E
:10068800C70083160313500883120313C60083168A
:1006980003134F0883120313C500831603134E0870
:1006A80083120313C4003F30C300C930C2000F30A7
:1006B800C100DB30C0000A168A11AA200A128A116A
:1006C80083120313430883160313DF0083120313F3
:1006D800420883160313DE008312031341088316AE
:1006E8000313DD0083120313400883160313DC0091
:1006F8005F0883120313D700831603135E0883125F
:100708000313D600831603135D0883120313D50061
:10071800831603135C0883120313D4000A128A1584
:100728003B200A128A1183120313570883160313F6
:10073800A30083120313560883160313A20083121F
:100748000313550883160313A100831203135408D7
:1007580083160313A0000A128A1104200A128A11B0
:10076800831603132308D1002208D0002108CF00E4
:100778002008CE00ED2FBF3083120313C300C93009
:10078800C2000F30C100DB30C000831603135108CC
:1007980083120313C700831603135008831203132D
:1007A800C600831603134F0883120313C50083166C
:1007B80003134E0883120313C4000A168A11AA20D1
:1007C8000A128A1183120313430883160313DF00E6
:1007D80083120313420883160313DE0083120313E4
:1007E800410883160313DD008312031340088316A0
:1007F8000313DC005F0883120313D7008316031367
:100808005E0883120313D600831603135D08831250
:100818000313D500831603135C0883120313D40053
:100828000A128A153B200A128A11831203135708E9
:1008380083160313D1008312031356088316031378
:10084800D00083120313550883160313CF008312B5
:100858000313540883160313CE00ED2F83160313D6
:100868005B08031D382C392C842C51088312031380
:10087800C70083160313500883120313C600831698
:1008880003134F0883120313C500831603134E087E
:1008980083120313C400C030C3004930C2000F30B4
:1008A800C100DB30C0000A168A11AA200A128A1178
:1008B80083120313430883160313A300831203133D
:1008C800420883160313A2008312031341088316F8
:1008D8000313A10083120313400883160313A00017
:1008E8000A128A1104200A128A1183160313230894
:1008F800D5002208D4002108D3002008D200CE2C2D
:10090800510883120313C700831603135008831278
:100918000313C600831603134F0883120313C5007D
:10092800831603134E0883120313C4004030C30018
:100938004930C2000F30C100DB30C0000A168A11EE
:10094800AA200A128A118312031343088316031379
:10095800A30083120313420883160313A200831211
:100968000313410883160313A100831203134008DD
:1009780083160313A0000A128A1104200A128A118E
:10098800831603132308D5002208D4002108D300B6
:100998002008D200550883120313D70083160313C7
:1009A800540883120313D6008316031353088312C3
:1009B8000313D50083160313520883120313D400BC
:1009C8000A168A1102230A128A118312031357087E
:1009D80083160313D10083120313560883160313D7
:1009E800D00083120313550883160313CF00831214
:1009F8000313540883160313CE00ED2F40308316DB
:100A080003136702031D142DE2306602031D142D23
:100A180031306502031D142DD6306402031D142DD8
:100A28000318172D182DE02E403083160313670284
:100A3800031D2A2DAF306602031D2A2DED306502F5
:100A4800031D2A2DE0306402031D2A2D03182D2DC5
:100A58002E2D262E831603135B080319342D352DEE
:100A6800A82D403083120313C3009630C200CB3048
:100A7800C100E430C0008316031351088312031326
:100A8800C70083160313500883120313C600831686
:100A980003134F0883120313C500831603134E086C
:100AA80083120313C4000A168A11AA200A128A1193
:100AB80083120313430883160313DF0083120313FF
:100AC800420883160313DE008312031341088316BA
:100AD8000313DD0083120313400883160313DC009D
:100AE8005F0883120313D700831603135E0883126B
:100AF8000313D600831603135D0883120313D5006E
:100B0800831603135C0883120313D4000A128A1590
:100B18003B200A128A118312031357088316031302
:100B2800D10083120313560883160313D0008312CF
:100B38000313550883160313CF00831203135408B5
:100B480083160313CE00ED2F510883120313C70039
:100B580083160313500883120313C6008316031366
:100B68004F0883120313C500831603134E0883121C
:100B78000313C400C030C3009630C200CB30C1009C
:100B8800E430C0000A168A11AA200A128A118312B8
:100B98000313430883160313DF0083120313420869
:100BA80083160313DE00831203134108831603130D
:100BB800DD0083120313400883160313DC005F086B
:100BC80083120313D700831603135E0883120313DB
:100BD800D600831603135D0883120313D50083160A
:100BE80003135C0883120313D4000A128A153B20EE
:100BF8000A128A1183120313570883160313A300DA
:100C080083120313560883160313A20083120313D7
:100C1800550883160313A10083120313540883167F
:100C28000313A0000A128A1104200A128A118316DB
:100C380003132308D1002208D0002108CF00200880
:100C4800CE00ED2F831603135B08031D2C2E2D2ECB
:100C58006D2EC03083120313C300C930C2000F3099
:100C6800C100DB30C000831603135108831203133D
:100C7800C70083160313500883120313C600831694
:100C880003134F0883120313C500831603134E087A
:100C980083120313C4000A168A11AA200A128A11A1
:100CA80083120313430883160313D9008312031313
:100CB800420883160313D8008312031341088316CE
:100CC8000313D70083120313400883160313D600B7
:100CD800AC2E403083120313C300C930C2000F305A
:100CE800C100DB30C00083160313510883120313BD
:100CF800C70083160313500883120313C600831614
:100D080003134F0883120313C500831603134E08F9
:100D180083120313C4000A168A11AA200A128A1120
:100D280083120313430883160313D9008312031392
:100D3800420883160313D80083120313410883164D
:100D48000313D70083120313400883160313D60036
:100D5800590883120313D700831603135808831204
:100D68000313D60083160313570883120313D50001
:100D780083160313560883120313D4000A168A1124
:100D880002230A128A1183120313570883160313C6
:100D9800D10083120313560883160313D00083125D
:100DA8000313550883160313CF0083120313540843
:100DB80083160313CE00ED2F7F30831603136702CB
:100DC800031DF22E80306602031DF22E00306502EC
:100DD800031DF22E00306402031DF22E031CF52EB3
:100DE800F62E092FFF3083160313E404FF30E504C1
:100DF800FF30E6040030E7046708D1006608D00039
:100E08006508CF006408CE00ED2F83160313510840
:100E1800B1005008B0004F08AF004E08AE00E030F7
:100E2800B2000A128A15B8240A128A11831603130B
:100E38002E080339DA00E22F6308A3006208A20033
:100E48006108A1006008A0000A128A1104200A1291
:100E58008A11831603132308E3002208E2002108FD
:100E6800E1002008E000630883120313D70083160B
:100E78000313620883120313D60083160313610851
:100E880083120313D5008316031360088312031318
:100E9800D4000A168A1102230A128A118312031334
:100EA800570883160313D1008312031356088316B9
:100EB8000313D00083120313550883160313CF00BE
:100EC80083120313540883160313CE00ED2F63080F
:100ED80083120313D70083160313620883120313C4
:100EE800D60083160313610883120313D5008316F3
:100EF8000313600883120313D4000A128A153B20D7
:100F08000A128A1183120313570883160313D10098
:100F180083120313560883160313D0008312031396
:100F2800550883160313CF0083120313540883163E
:100F38000313CE00ED2F630883120313D700831623
:100F48000313620883120313D60083160313610880
:100F580083120313D5008316031360088312031347
:100F6800D4000A128A153B200A128A11831203132D
:100F7800570883160313A300831203135608831616
:100F88000313A20083120313550883160313A10049
:100F980083120313540883160313A0000A128A113C
:100FA80004200A128A11831603132308D100220889
:100FB800D0002108CF002008CE00ED2F5A08003AB3
:100FC8000319372F013A03196B2F033A0319202FFE
:100FD8009F2F080083160317C401C501C601C70166
:100FE800C801C901CA01CB01CC01CD01CE01CF0195
:080FF80083010A168A15662E1A
:10102800F800F401F5017008F200F3017208F60007
:101038007308F700781C2128222828287608F40746
:101048000318F50A7708F50701300310F60DF70DB8
:10105800FF3E031D29280310F80C7808031D3528C6
:1010680036281E287508F1007408F000080083125D
:1010780003135708A9005608A8005508A7005408E4
:10108800A6005708AD005608AC005508AB00540838
:10109800AA000A128A1573210A128A1583120313E9
:1010A8002908EF002808EE002708ED002608EC00C4
:1010B8006F08A9006E08A8006D08A7006C08A600B4
:1010C8006F08AD006E08AC006D08AB006C08AA0094
:1010D8000A128A1573210A128A1583120313290822
:1010E800EB002808EA002708E9002608E800BA30DB
:1010F800C300B630C2000430C1003F30C0003730F2
:10110800A900CC30A8009A30A7001730A6006F08B5
:10111800AD006E08AC006D08AB006C08AA000A129E
:101128008A1573210A128A15831203132908C70026
:101138002808C6002708C5002608C4000A168A1110
:10114800AA200A128A15831203134308DB004208F7
:10115800DA004108D9004008D8006F08A9006E08D5
:10116800A8006D08A7006C08A6006B08AD006A0807
:10117800AC006908AB006808AA000A128A15732136
:101188000A128A15831203132908DF002808DE00D3
:101198002708DD002608DC003F30C3008030C2008D
:1011A8000030C1000030C000BF30A9000030A800E6
:1011B8000030A7000030A6006F08AD006E08AC0034
:1011C8006D08AB006C08AA000A128A1573210A126E
:1011D8008A15831203132908C7002808C6002708A0
:1011E800C5002608C4000A168A11AA200A128A1500
:1011F800831203134308E3004208E2004108E100B8
:101208004008E0003D30A9002A30A800AA30A70015
:101218009F30A6006B08AD006A08AC006908AB00F7
:101228006808AA000A128A1573210A128A158312FD
:1012380003132908C3002808C2002708C10026088C
:10124800C0006308C7006208C6006108C5006008DE
:10125800C4000A168A11AA200A128A1583120313D7
:101268004308E7004208E6004108E5004008E400BA
:101278005B08A9005A08A8005908A7005808A60042
:101288005F08AD005E08AC005D08AB005C08AA0012
:101298000A128A1573210A128A1583120313290860
:1012A800C3002808C2002708C1002608C000670834
:1012B800C7006608C6006508C5006408C4000A16A9
:1012C8008A11AA200A128A15831203134308D70029
:1012D8004208D6004108D5004008D400080083120F
:1012E800031329088039B3002908AE002E07B90076
:1012F800A81F7F29802981293914390803198529CC
:1013080086299529390A031D8A298B2993290030B2
:10131800A9000030A8000030A7000030A600A817D8
:101328009D290030A9000030A8000030A700003037
:10133800A6002D088039FF007F08B3062D08AE00EF
:101348002E07B800AC1FA929AA29AB2938143808D8
:101358000319AF29B029BF29380A031DB429B529B3
:10136800BD290030AD000030AC000030AB000030CB
:10137800AA00AC17C7290030AD000030AC0000301F
:10138800AB000030AA0038080319CB29CC29D12991
:101398003908031DD029D129DA290030A9000030E5
:1013A800A8000030A7000030A600B72C2608F000DF
:1013B8002C080A128A1514200A128A157108831239
:1013C8000313BF007008BE003E08AE00AF01B001B5
:1013D800B1013108B7003008B6002F08B5002E0853
:1013E800B4003F08AE00AF01B001B1013108BD0043
:1013F8003008BC002F08BB002E08BA002708F000F0
:101408002B080A128A1514200A128A1571088312E9
:101418000313BF007008BE003E08AE00AF01B00164
:10142800B1012E08B4072F0803110318013E031950
:101438001E2AB507300803110318013E0319252A8F
:10144800B607310803110318013E03192C2AB70700
:101458003F08AE00AF01B001B1012E08BA072F084E
:1014680003110318013E03193A2ABB073008031178
:101478000318013E0319412ABC0731080311031858
:10148800013E0319482ABD072808F0002A080A1255
:101498008A1514200A128A15710883120313BF00D3
:1014A8007008BE003E08AE00AF01B001B1012E08C1
:1014B800B4072F0803110318013E0319642AB5075E
:1014C800300803110318013E03196B2AB6073108C7
:1014D80003110318013E0319722AB7073F08AE002B
:1014E800AF01B001B1012E08BA072F080311031884
:1014F800013E0319802ABB07300803110318013E77
:101508000319872ABC07310803110318013E031980
:101518008E2ABD070830AE000310B40DB50DB60D08
:10152800B70DAE0B902A2708F0002A080A128A1570
:1015380014200A128A15710883120313BF00700859
:10154800BE003E08AE003F08AF00B001B1012E0852
:10155800B4072F0803110318013E0319B42AB5076D
:10156800300803110318013E0319BB2AB6073108D6
:1015780003110318013E0319C22AB7072608F00011
:101588002B080A128A1514200A128A157108831268
:101598000313BF007008BE003E08AE003F08AF004E
:1015A800B001B1012E08B4072F0803110318013E3A
:1015B8000319DF2AB507300803110318013E031980
:1015C800E62AB607310803110318013E0319ED2A6C
:1015D800B7070830AE000310B40DB50DB60DB70D42
:1015E800AE0BEF2A2608F0002A080A128A151420E2
:1015F8000A128A15710883120313BF007008BE000F
:101608003E08AE003F08AF00B001B1012E08B40794
:101618002F0803110318013E0319132BB5073008CF
:1016280003110318013E03191A2BB60731080311D9
:101638000318013E0319212BB7072708F0002C08CF
:101648000A128A1514200A128A15710883120313C4
:10165800BF007008BE003E08AE003F08AF00B001F2
:10166800B1012E08BA072F0803110318013E031908
:101678003E2BBB07300803110318013E0319452B05
:10168800BC07310803110318013E03194C2BBD0791
:101698002808F0002B080A128A1514200A128A1545
:1016A800710883120313BF007008BE003E08AE0025
:1016B8003F08AF00B001B1012E08BA072F08031187
:1016C8000318013E0319692BBB07300803110318DF
:1016D800013E0319702BBC07310803110318013EA2
:1016E8000319772BBD072808F0002C080A128A1561
:1016F80014200A128A15710883120313BF00700898
:10170800BE003E08AE003F08AF00B001B10108308E
:101718000310AE0DAF0DB00DB10DFF3E031D8C2BA8
:101728002E08BA072F0803110318013E03199D2B31
:10173800BB07300803110318013E0319A42BBC078B
:10174800310803110318013E0319AB2BBD073408F8
:10175800AE003508AF003608B0003708B1001830C1
:101768000310B10CB00CAF0CAE0CFF3E031DB42B34
:101778002E08BA072F0803110318013E0319C52BB9
:10178800BB07300803110318013E0319CC2BBC0713
:10179800310803110318013E0319D32BBD07083084
:1017A800AE000310B40DB50DB60DB70DAE0BD52BAD
:1017B80039083807AE00AF01AF0D2E08823EBE00D3
:1017C8002F080318013EFF3EBF00072C0130AE0072
:1017D8000310BA0DBB0DBC0DBD0DAE0BEC2BB71F26
:1017E800F62BF72BF82B3A140130AE000310B40D8A
:1017F800B50DB60DB70DAE0BFA2BFF30BE070318AB
:10180800BF0AFF30BF07BC1F0A2C0B2CEA2BB801FC
:10181800B71F0F2C102C2C2CFF303405AE00FF30D6
:101828003505AF00FF303605B0007F303705B10011
:10183800310830042F042E040319232C242C272CC0
:10184800B801B80A2C2C3A1C2A2C2B2C2C2C242C12
:1018580038080319302C312C622C0130BA070030BB
:1018680003180130BB07003003180130BC070030F3
:1018780003180130BD073D1C422C432C622C3A084A
:10188800AE003B08AF003C08B0003D08B100013095
:10189800B200310DB10CB00CAF0CAE0CB20B4D2C2C
:1018A8003108BD003008BC002F08BB002E08BA0064
:1018B8000130BE070318BF0A0030BF073F08803A4F
:1018C800FF0080307F02031D6B2CFF303E02031C9B
:1018D8006E2C6F2C7A2C7F3083120313BD0080305E
:1018E800BC000030BB000030BA00AB2C83120313DD
:1018F8003F08803AFF0080307F02031D852C0130AD
:101908003E020318882C892C952C0030831203136F
:10191800BD000030BC000030BB000030BA00B3018D
:10192800AB2C831203133E08B900FF30BA05FF3011
:10193800BB057F30BC050030BD05391CA42CA52C87
:10194800A62CBC173908AE0003102E0CBD003308B6
:10195800FF007F08BD043D08A9003C08A8003B081B
:10196800A7003A08A6000800831603174B08831639
:101978000313C100831603174A0883160313C00014
:1019880083160317490883160313BF00831603172A
:10199800480883160313BE003108C1003008C00090
:1019A8002F08BF002E08BE00C11BDB2CDD2C013028
:1019B800DE2C0030BD00FF30BE05FF30BF05FF3014
:1019C800C0057F30C1054D304102031DF72CC930D9
:1019D8004002031DF72C0F303F02031DF72CDB30AC
:1019E8003E02031DF72C0318FA2CFB2C8D2E8316B0
:1019F80003133108F3003008F2002F08F1002E0815
:101A0800F0000A168A15C8240A128A157308831664
:101A18000313C9007208C8007108C7007008C6001F
:101A2800490883120313AD00831603134808831271
:101A38000313AC0083160313470883120313AB0088
:101A480083160313460883120313AA003F30A90024
:101A58002230A800F930A7008330A6000A128A15A0
:101A680073210A128A15831203132908C70028084C
:101A7800C6002708C5002608C4003F30C300003050
:101A8800C2000030C1000030C0000A168A11AA2026
:101A98000A128A1583120313430883160313A70037
:101AA80083120313420883160313A6008312031339
:101AB800410883160313A5008312031340088316F5
:101AC8000313A4000A168A1534250A128A158316E8
:101AD80003132708CD002608CC002508CB002408CE
:101AE800CA004D08F9004C08F8004B08F7004A08EE
:101AF800F60001300A168A15AC250A128A157908EB
:101B080083160313C5007808C4007708C300760855
:101B1800C2003F3083120313A900C930A8000F3058
:101B2800A700DA30A60083160313450883120313AF
:101B3800AD0083160313440883120313AC00831605
:101B48000313430883120313AB00831603134208DD
:101B580083120313AA000A128A1573210A128A151E
:101B6800831203132908D7002808D6002708D500B0
:101B78002608D40083160313490883120313DB00D5
:101B880083160313480883120313DA00831603131A
:101B9800470883120313D9008316031346088312D8
:101BA8000313D8000A168A15EB240A128A15831221
:101BB8000313570883160313BC0083120313560834
:101BC80083160313BB0083120313550883160313EC
:101BD800BA0083120313540883160313B900323072
:101BE80083120313A9008830A8008530A700A3300A
:101BF800A60083160313450883120313AD0083164A
:101C08000313440883120313AC0083160313430819
:101C180083120313AB0083160313420883120313C2
:101C2800AA000A128A1573210A128A15831203134D
:101C38002908D7002808D6002708D5002608D40088
:101C4800831603133C0883120313DB008316031364
:101C58003B0883120313DA00831603133A0883122E
:101C68000313D90083160313390883120313D8000A
:101C78000A168A15EB240A128A15831603133208EA
:101C8800840083120313540883138000840A5508C0
:101C98008000840A56088000840A5708800083164A
:101CA80003133D080319592E5A2E882E3208840032
:101CB8000008A000840A0008A100840A0008A20005
:101CC800840A0008A3000A128A1104200A128A153D
:101CD8008316031332088400200883138000840AC3
:101CE80021088000840A22088000840A23088000D2
:101CF8004A09B3004B09B400B30A0319B40A3308FC
:101D0800AE003408AF00FF2F4B08AF004A08AE0002
:101D1800FF2F831603133108F3003008F2002F0851
:101D2800F1002E08F0000A168A15C8240A128A152E
:101D3800730883160313C9007208C8007108C70026
:101D48007008C600490883120313AD0083160313F5
:101D5800480883120313AC00831603134708831241
:101D68000313AB0083160313460883120313AA0058
:101D78003F30A9002230A800F930A7008330A60020
:101D88000A128A1573210A128A1583120313290865
:101D9800C7002808C6002708C5002608C4003F3029
:101DA800C3000030C2000030C1000030C0000A1675
:101DB8008A11AA200A128A1583120313430883166C
:101DC8000313A70083120313420883160313A60004
:101DD80083120313410883160313A5008312031308
:101DE800400883160313A4000A168A1534250A121C
:101DF8008A15831603132708CD002608CC0025086A
:101E0800CB002408CA004D08F9004C08F8004B081C
:101E1800F7004A08F60001300A168A15AC250A129E
:101E28008A15790883160313C5007808C400770853
:101E3800C3007608C2003F3083120313A900C930DB
:101E4800A8000F30A700DA30A60083160313450850
:101E580083120313AD00831603134408831203137C
:101E6800AC0083160313430883120313AB008316D5
:101E78000313420883120313AA000A128A15732156
:101E88000A128A15831203132908D7002808D600D6
:101E98002708D5002608D40083160313490883129F
:101EA8000313DB0083160313480883120313DA00B5
:101EB80083160313470883120313D90083160313E9
:101EC800460883120313D8000A168A15EB240A124F
:101ED8008A1583120313570883160313BC00831251
:101EE8000313560883160313BB0083120313550804
:101EF80083160313BA0083120313540883160313BB
:101F0800B900323083120313A9008830A800853045
:101F1800A700A330A60083160313450883120313F2
:101F2800AD0083160313440883120313AC00831611
:101F38000313430883120313AB00831603134208E9
:101F480083120313AA000A128A1573210A128A152A
:101F5800831203132908D7002808D6002708D500BC
:101F68002608D400831603133C0883120313DB00EE
:101F7800831603133B0883120313DA008316031333
:101F88003A0883120313D9008316031339088312FE
:101F98000313D8000A168A15EB240A128A1583122D
:101FA8000313570883160313B80083120313560844
:101FB80083160313B70083120313550883160313FC
:101FC800B60083120313540883160313B5003208AE
:101FD8008400350883138000840A36088000840A48
:101FE80037088000840A380880003D080319FD2F4F
:081FF800FE2F882E5A2E08006E
:1020100000307005F80000307105F900803072055D
:10202000FA007F307305FB007B087A04790478049A
:10203000031D1B281C2824280030F3000030F20068
:102040000030F1000030F00000307405F80000307E
:102050007505F90080307605FA007F307705FB00C2
:102060007B087A0479047804031D3728382840282F
:102070000030F7000030F6000030F5000030F400CA
:10208000F31F4328442868280030F8000030F90086
:102090000030FA008030FB007008F8027108031C61
:1020A000710F53285428F9027208031C720F592823
:1020B0005A28FA027308031C730F5F286028FB027A
:1020C0007B08F3007A08F2007908F1007808F00044
:1020D000F71F6B286C2890280030F8000030F900BA
:1020E0000030FA008030FB007408F8027508031C09
:1020F000750F7B287C28F9027608031C760F81284F
:102100008228FA027708031C770F87288828FB02A9
:102110007B08F7007A08F6007908F5007808F400E3
:102120008030F3068030F70677087302031DA2287B
:1021300076087202031DA22875087102031DA228E9
:10214000740870020318A528A628A8280310A92837
:10215000031408008312031343088039D000430896
:10216000C8004807D200C21FB628B728B8285214A2
:1021700052080319BC28BD28CD28520A031DC128C6
:10218000C228CA280030C3000030C2000030C1009D
:102190000030C000C217C301D5280030C300003092
:1021A000C2000030C1000030C00047088039D100B3
:1021B000510850060319DD28DE28DF28501747088C
:1021C000C8004807D100C61FE628E728E8285114B0
:1021D00051080319EC28ED28FD28510A031DF128A8
:1021E000F228FA280030C7000030C6000030C500D1
:1021F0000030C400C617C70105290030C7000030F1
:10220000C6000030C5000030C40052085102031857
:102210000A290B293129501F0E290F291329803033
:10222000FF007F08D0065208D3005108D20053089F
:10223000D1004008D3004408C0005308C40041083E
:10224000D3004508C1005308C5004208D300460822
:10225000C2005308C6004308D3004708C300530810
:10226000C700D3015108C800C9014908CB00520872
:102270004802CA00031CCB034B08803AFF008030A1
:102280007F02031D45291A304A02031C48294929A7
:102290008029831203134308420441044004031DB0
:1022A00052295429013055290030D3000030C30091
:1022B0000030C2000030C1000030C0005108D20020
:1022C0008829531C642965296C295308C800031008
:1022D000480C0138D3006E290310D30C401C71291F
:1022E00072297329D3170130C800430DC30CC20CE7
:1022F000C10CC00CC80B75290130FF007F08D20744
:102300008312031351085202031C8729882961296B
:10231000501B8B298C29D5295208031D90299129FE
:102320009A290030C3000030C2000030C1000030E4
:10233000C000012B4408C007450803110318013EE3
:102340000319A329C107460803110318013E031905
:10235000AA29C207470803110318013E0319B1292E
:10236000C307431CB429B529892A531CB829B929A4
:10237000C0295308C8000310480C0138D300C229F3
:102380000310D30C401CC529C629C729D317013017
:10239000C800430DC30CC20CC10CC00CC80BC9292A
:1023A0000130FF007F08D207892A4308803AFF00E6
:1023B0004708803A7F02031DE72946084202031DB1
:1023C000E72945084102031DE72944084002031894
:1023D000EA29EB29432AFF30C800FF30C900FF304B
:1023E000CA00FF30CB004408CC004508CD004608A9
:1023F000CE004708CF004008CC024108031C410F23
:10240000022A032ACD024208031C420F082A092A85
:10241000CE024308031C430F0E2A0F2ACF024C089A
:10242000C8074D0803184D0F162A172AC9074E086A
:1024300003184E0F1C2A1D2ACA074F0803184F0AFB
:10244000CB074B08C3004A08C2004908C10048082E
:10245000C0008030FF007F08D006D309D30A53089C
:10246000031D332A342A512A0130C00700300318D3
:102470000130C107003003180130C20700300318D3
:102480000130C307512A4408C0024508031C450F08
:10249000C1024608031C460FC2024708031C470F2F
:1024A000C3024308420441044004031D582A592A28
:1024B000852A5308031D5D2A5E2A852A0030C30041
:1024C0000030C2000030C1000030C000012B0130DC
:1024D000C8000310C00DC10DC20DC30DC80B692A81
:1024E000D31F732A742A752A4014531C782A792A18
:1024F0007C2A0314D30D7E2A0310D30D520803192E
:10250000822A832A852A0130D202C21F882A892A78
:10251000672AD101D31F8D2A8E2A9C2A53087F391E
:102520000319932A942A972AD101D10A9C2A401C84
:102530009A2A9B2A9C2A942A51080319A02AA12A84
:10254000D52A0130C007003003180130C107003020
:1025500003180130C207003003180130C307431CC1
:10256000B22AB32AD52A4008C8004108C900420847
:10257000CA004308CB000130CC004B0DCB0CCA0C79
:10258000C90CC80CCC0BBD2A4B08C3004A08C200BA
:102590004908C1004808C000520A0319D02AD12AAC
:1025A000D52A0130FF007F08D207520A0319D92A21
:1025B000DA2ADF2A5208031DDE2ADF2AED2A00303C
:1025C000C3000030C2000030C1000030C00052081B
:1025D000031DEB2AEC2AED2AD001521CF02AF12A25
:1025E000F32AC217F72A7F30FF007F08C20552087E
:1025F000C8000310480CC300D01FFF2A002B012B7A
:10260000C3170800831203135708A9005608A8002F
:102610005508A7005408A6005708AD005608AC009E
:102620005508AB005408AA000A128A1573210A162D
:102630008A1183120313290883160313BB00831224
:102640000313280883160313BA0083120313270801
:1026500083160313B900831203132608831603138A
:10266000B8003B0883120313A900831603133A082A
:1026700083120313A800831603133908831203136C
:10268000A70083160313380883120313A6008316CA
:1026900003133B0883120313AD00831603133A0898
:1026A00083120313AC008316031339088312031338
:1026B000AB0083160313380883120313AA000A120F
:1026C0008A1573210A168A118312031329088316A7
:1026D0000313A70083120313280883160313A6000D
:1026E00083120313270883160313A5008312031311
:1026F000260883160313A400B93083120313C30002
:102700005030C2000730C100CF30C0003630A900C1
:102710003630A8006C30A7003C30A60083160313A7
:102720003B0883120313AD00831603133A08831288
:102730000313AC0083160313390883120313AB0091
:1027400083160313380883120313AA000A128A158A
:1027500073210A168A11831203132908C700280857
:10276000C6002708C5002608C4000A168A11AA2038
:102770000A168A1183120313430883160313A30056
:1027800083120313420883160313A2008312031358
:10279000410883160313A100831203134008831614
:1027A0000313A000831203135708A9005608A800BA
:1027B0005508A7005408A600831603133B0883128C
:1027C0000313AD00831603133A0883120313AC00FE
:1027D00083160313390883120313AB008316031304
:1027E000380883120313AA000A128A1573210A16E5
:1027F0008A1183120313290883160313B700831267
:102800000313280883160313B60083120313270843
:1028100083160313B50083120313260883160313CC
:10282000B400270883120313A90083160313260894
:1028300083120313A80083160313250883120313BE
:10284000A70083160313240883120313A60083161C
:102850000313370883120313AD00831603133608DE
:1028600083120313AC00831603133508831203137A
:10287000AB0083160313340883120313AA000A1251
:102880008A1573210A168A118312031329088316E5
:102890000313AB0083120313280883160313AA0043
:1028A00083120313270883160313A900831203134B
:1028B000260883160313A800BE3083120313C30037
:1028C0002A30C200AA30C100AB30C0003C30A900A1
:1028D0000830A8008830A7008430A60083160313B0
:1028E0003B0883120313AD00831603133A088312C7
:1028F0000313AC0083160313390883120313AB00D0
:1029000083160313380883120313AA000A128A15C8
:1029100073210A168A11831203132908C700280895
:10292000C6002708C5002608C4000A168A11AA2076
:102930000A168A1183120313430883160313AF0088
:1029400083120313420883160313AE00831203138A
:10295000410883160313AD00831203134008831646
:102960000313AC00831203135708C3005608C200B8
:102970005508C1005408C00083160313370883129A
:102980000313A90083160313360883120313A80048
:1029900083160313350883120313A700831603134A
:1029A000340883120313A600831603132F0883121F
:1029B0000313AD00831603132E0883120313AC0018
:1029C000831603132D0883120313AB00831603131E
:1029D0002C0883120313AA000A128A1573210A16FF
:1029E0008A11831203132908C7002808C600270884
:1029F000C5002608C4000A168A11AA200A168A11E0
:102A000083120313430883160313B30083120313C3
:102A1000420883160313B20083120313410883167E
:102A20000313B10083120313400883160313B0008D
:102A3000230883120313A9008316031322088312A9
:102A40000313A80083160313210883120313A7009E
:102A500083160313200883120313A600831603139F
:102A60002B0883120313AD00831603132A08831265
:102A70000313AC0083160313290883120313AB005E
:102A800083160313280883120313AA000A128A1557
:102A900073210A168A11831203132908C300280818
:102AA000C2002708C1002608C0008316031333089C
:102AB00083120313C7008316031332088312031310
:102AC000C60083160313310883120313C50083164F
:102AD0000313300883120313C4000A168A11AA20B4
:102AE0000A168A11831203134308D7004208D6003E
:102AF0004108D5004008D4000800831603136F086E
:102B00008039831603179900831603136F08831601
:102B1000031790001007A00083160313EE1F912DDA
:102B2000922D952D83160317201483160317200862
:102B300003199B2D9C2DAF2D200A031DA02DA12D27
:102B4000AB2D003083160313EF000030EE00003091
:102B5000ED000030EC000313EE17EF01B92D00304B
:102B600083160313EF000030EE000030ED0000305C
:102B7000EC006B088039FF007F0883160317990665
:102B8000831603136B088316031790001007A10028
:102B900083160313EA1FCD2DCE2DD12D83160317D7
:102BA00021148316031721080319D72DD82DEB2DD7
:102BB000210A031DDC2DDD2DE72D003083160313C4
:102BC000EB000030EA000030E9000030E8000313B9
:102BD000EA17EB01F52D003083160313EB000030EC
:102BE000EA000030E9000030E8006B086A0469047C
:102BF0006804031DFC2DFD2D1A2E0030EF0000305F
:102C0000EE000030ED000030EC008030EE047F304C
:102C1000EF04831603171908FF007F0883160313B8
:102C2000EF046F08EB006E08EA006D08E9006C081D
:102C3000E800FF2F831603172008031D202E212EE6
:102C40002C2E003083160313EB000030EA00003016
:102C5000E9000030E800FF2F2008900091011108E2
:102C60009300210810029200031C930312087F3E78
:102C70009A0013080318013E003E9B0083160313BD
:102C80006F08831603179800831603136E088316C4
:102C900003179700831603136D0883160317960016
:102CA000831603136C0883160317950000308316F0
:102CB0000313EF000030EE000030ED000030EC00B8
:102CC0000030831603179F0000309E0000309D00E7
:102CD00000309C00A101E82E21080319702E712EEE
:102CE000992E013090000310950D960D970D980DBB
:102CF000900B732E01309000031083160313EC0D1C
:102D0000ED0DEE0DEF0D83160317900B7C2E9F1F1C
:102D10008A2E8B2E8E2E831603136C14013083168D
:102D20000317900003109C0D9D0D9E0D9F0D900BA1
:102D3000922E831603136B08831603171802031DC4
:102D4000B72E831603136A08831603171702031D91
:102D5000B72E831603136908831603171602031D83
:102D6000B72E831603136808831603171502031C76
:102D7000BA2EBB2EE42E1F17831603136808831682
:102D800003179502831603136908031C690FC92EE4
:102D9000CC2E831603179602831603136A08031CAE
:102DA0006A0FD32ED62E83160317970283160313AA
:102DB0006B08031C6B0FDD2EE02E831603179802A1
:102DC00083160313831603170130FF007F08A10742
:102DD0001A302102031CED2EEE2E6C2E180817045B
:102DE000160415040319F52EF62E1F2F1C141F2F81
:102DF0000130831603179000031083160313EC0DA4
:102E0000ED0DEE0DEF0D83160317900BFC2E9F1F9B
:102E10000A2F0B2F0E2F831603136C140130831609
:102E20000317900003109C0D9D0D9E0D9F0D900BA0
:102E3000122FFF309A0703189B0AFF309B07831657
:102E40000313EE1F242F252FF82E83160317A1013D
:102E50009F1F2B2F2C2F4C2FFF301C059000FF3075
:102E60001D059100FF301E0592007F301F05930065
:102E7000130812041104100403193F2F402F452F8B
:102E800083160317A101A10A4C2F831603136C1C90
:102E90004A2F4B2F4C2F402F83160317210803195D
:102EA000522F532FA42F013083160313EC07003049
:102EB00003180130ED07003003180130EE07003031
:102EC00003180130EF076F1C662F672FA42F6C08C3
:102ED000831603179000831603136D0883160317D8
:102EE0009100831603136E0883160317920083164E
:102EF00003136F0883160317930001309400130D1A
:102F0000930C920C910C900C940B7F2F130883164A
:102F10000313EF0083160317120883160313EE0042
:102F200083160317110883160313ED008316031786
:102F3000100883160313EC000130831603179A0759
:102F400003189B0A00309B07831603171B08803A5F
:102F5000FF0080307F02031DAF2FFF301A02031CD9
:102F6000B22FB32FC32FFF30831603179A00003000
:102F70009B00003083160313EF000030EE0000309A
:102F8000ED000030EC00831603171B08803AFF00A9
:102F900080307F02031DCE2F01301A020318D12F7B
:102FA000D22FE32F831603179A019B01003083165B
:102FB0000313EF000030EE000030ED000030EC00B5
:102FC000831603179901831603171A08A000201C03
:102FD000EA2FEB2FEF2F83160313EE17F52F7F3019
:102FE000FF007F0883160313EE05831603172008DE
:102FF00090000310100C83160313EF00092E080035
:1030000018308A000408840A820700343C346C3487
:1030100036343634CF3407345034B93484348834B9
:1030200008343C34AB34AA342A34BE34A334853457
:1030300088343234DA340F34C9343F348334F934C9
:1030400022343F340034003400343F3417349A348F
:10305000CC3437343F340434B634BA349F34AA34D1
:103060002A343D34003400340034BF34DB340F34B0
:10307000C9344034E434CB3496344034DB340F3438
:1030800049344034DB340F34C9343F340034003425
:0430900000344B3489
:10399000831603174708F7004608F6004508F500A8
:1039A0004408F4007308F7007208F6007108F50087
:1039B0007008F400FF30F405FF30F505FF30F60520
:1039C0007F30F7057708F3007608F2007508F100FC
:1039D0007408F0000800803083120313D7065B08D8
:1039E000C3005A08C2005908C1005808C00057084F
:1039F000C7005608C6005508C5005408C4000A167A
:103A00008A11AA200A168A15831203134308D700C5
:103A10004208D6004108D5004008D4000800F4014F
:103A2000F501701C142D152D1B2D7208F4070318B9
:103A3000F50A7308F50701300310F20DF30DFF3E90
:103A4000031D1C2D01300310F10CF00CFF3E031D73
:103A5000232D70087104031D2E2D2F2D112D750897
:103A6000F1007408F0000800031083160313260DFC
:103A7000270DAD002D08031D3E2D3F2D482D003094
:103A8000A7000030A6000030A5000030A400AB2D38
:103A90002408A8002508A9002608AA002708AB00CA
:103AA0001F300310AB0CAA0CA90CA80CFF3E031D81
:103AB000512D2808AC00A617FF30A405FF30A5053E
:103AC000FF30A6050030A7059630AD02AD1F692D69
:103AD0006A2D842D2D08803A973E0318702D712D84
:103AE000722D3F2D01300310A70CA60CA50CA40CC1
:103AF000FF3E031D732D0130FF007F08AD07031D3E
:103B0000822D832D722D9B2D20302D02031C892D9B
:103B10008A2D962D3F2D0130A8000310A40DA50D70
:103B2000A60DA70DA80B8D2D0130AD022D08031D8C
:103B30009A2D9B2D8B2D2C0803199F2DA02DAB2D7D
:103B4000A409A509A609A709A40A0319A50A031926
:103B5000A60A0319A70A080083120313A00020086D
:103B60000319B32DB42DC82DF91FB72DB82DC82DAD
:103B70007609A2007709A3007809A4007909A500B5
:103B8000A20A0319A30A0319A40A0319A50AD02D2E
:103B90007908A5007808A4007708A3007608A20099
:103BA0007908780477047604031DD72DD82DE12DEC
:103BB0000030F9000030F8000030F7000030F60067
:103BC000652E9630A100F12D0130FF007F08A1077E
:103BD00001300310A50CA40CA30CA20CFF3E031D86
:103BE000E92DFE302505031DF62DF72DE42D132EAE
:103BF0000130FF007F08A1070130A2070030031841
:103C00000130A307003003180130A4070030031867
:103C10000130A50701300310A50CA40CA30CA20CC5
:103C2000FF3E031D0B2EFF302505031D182E192EF8
:103C3000F82D252E0130A1020130FA000310A20D4B
:103C4000A30DA40DA50DFA0B1E2EA41B282E292EA4
:103C50002F2E0230210203182E2E2F2E1A2E21185D
:103C6000322E332E3B2EFF30A205FF30A3057F30CE
:103C7000A405FF30A5050310A10C2108FA00FB01E3
:103C8000FC01FD0118300310FA0DFB0DFC0DFD0DBC
:103C9000FF3E031D432E7A08A2047B08A3047C0880
:103CA000A4047D08A50420080319572E582E5D2E64
:103CB000F91F5B2E5C2E5D2EA5172508F900240840
:103CC000F8002308F7002208F60008008316031303
:103CD000860183120313860183120317D001D101D9
:103CE0000730F2000030F300831203175108F1008F
:103CF0005008F0000A168A150F250A168A15700852
:103D0000F6007108F7000030F71BFF30F800F900EB
:103D100001300A168A15AC250A168A15790883120D
:103D20000313AD007808AC007708AB007608AA0052
:103D30003C30A9008E30A800FA30A7003330A6002E
:103D40000A128A1573210A168A1583120313290889
:103D500083120317C5008312031328088312031765
:103D6000C40083120313270883120317C3008312AE
:103D70000313260883120317C20045088316031392
:103D8000D10083120317440883160313D000831253
:103D90000317430883160313CF0083120317420847
:103DA00083160313CE000A128A1194220A168A156A
:103DB00083160313510883120317C90083160313D4
:103DC000500883120317C800831603134F08831289
:103DD0000317C700831603134E0883120317C60088
:103DE000490883120313C70083120317480883127C
:103DF0000313C60083120317470883120313C50079
:103E000083120317460883120313C4003F30C30014
:103E10008030C2000030C1000030C0000A168A1194
:103E2000AA200A168A158312031343088316031364
:103E3000EF0083120313420883160313EE0083126C
:103E40000313410883160313ED0083120313400884
:103E500083160313EC004030EB000030EA00003022
:103E6000E9000030E8000A168A117D250A168A1535
:103E7000831603136B0883120313AD008316031319
:103E80006A0883120313AC008316031369088312B4
:103E90000313AB0083160313680883120313AA00ED
:103EA0004330A9007F30A8000030A7000030A600F2
:103EB0000A128A1573210A168A1583120313290818
:103EC00083120317CD0083120313280883120317EC
:103ED000CC0083120313270883120317CB0083122D
:103EE0000313260883120317CA005008103E8400EB
:103EF0004D0883160317A500831203174C08831679
:103F00000317A400831203174B0883160317A3009B
:103F1000831203174A0883160317A2000A128A1194
:103F200011200A168A158316031725088316031312
:103F3000A70083160317240883160313A60083160D
:103F40000317230883160313A500831603172208FB
:103F500083160313A4000A168A1534250A168A1537
:103F6000831603132408831780000130831203177C
:103F7000D0070318D10A0030D1075108803AFF005A
:103F800080307F02031DC62F32305002031CC92F20
:103F9000CA2F702E83120317CE01CF01831203178D
:103FA0004E08103E84008317000883120313860016
:103FB000023083160317C3000430C200B930C100B9
:103FC000C10BE02FC20BE02FC30BE02FE72F013016
:103FD00083120317CE070318CF0A0030CF074F080C
:103FE000803AFF0080307F02031DF82F32304E02EE
:103FF000031CFB2FFC2FCE2FCA2F0A128A11002878
:02400E00713F00
:00000001FF
