:060000000A128A1110280B
:10000800FE00030EF0000408F1000A08F2007F0861
:10001800F3000A128A1196290A128A111328F70185
:10002800F801F90183132030840034300A128A1150
:1000380044220A128A1183010A128A118E28831611
:10004800031386018612061200300A128A11E7216C
:100058000A128A11273083120313B500F430B40052
:10006800B40B3428B50B34280000A53083120313D1
:10007800B400B40B3D28402803300A128A1121220B
:100088000A128A11073083120313B5007C30B400BA
:10009800B40B4C28B50B4C28000003300A128A1107
:1000A80021220A128A11313083120313B400B40BCF
:1000B8005B2803300A128A1121220A128A1102309F
:1000C8000A128A1121220A128A1102300A128A118E
:1000D80021220A128A1108300A128A1121220A12D0
:1000E8008A1100300A128A1121220A128A110C3050
:1000F8000A128A1121220A128A1100300A128A1160
:1001080021220A128A1106300A128A1121220A12A1
:100118008A1108000A128A1109220A128A110A127F
:100128008A1123200A128A110A128A1137220A1206
:100138008A1183120313B401B40A01300A128A1116
:10014800DC200A128A1183120313071CAC28AD287D
:10015800BC280A128A1137220A128A118312031341
:10016800B401B40A01300A128A11DC200A128A1179
:100178007803031DC028C128A72820300A128A1135
:100188006A210A128A1183120313B401B40A0130D6
:100198000A128A11DC200A128A1120300A128A11E6
:1001A800C2210A128A11F801A7280A128A111028F6
:1001B80083120313B6003603031DE328E42802293B
:1001C80034087F3EB9003908B50004300310B50C77
:1001D800FF3E031DEA283508B80039080F39B70073
:1001E80038080A128A1121220A128A11831203136B
:1001F80037080A128A1121220A128A110230831240
:1002080003133606031D09290A2928293408BF3E85
:10021800B9003908B50004300310B50CFF3E031DC2
:1002280010293508B80039080F39B70038080A12FC
:100238008A1121220A128A118312031337080A121B
:100248008A1121220A128A11080083120313B600A8
:1002580036080F39B4003608F039B5008616350867
:10026800F50004300310F50CFF3E031D3629750810
:100278000A128A11E7210A128A1183120313061639
:10028800A630F500F50B4629000083120313061269
:10029800A630F500F50B4E2900008312031334082D
:1002A8000A128A11E7210A128A1183120313061609
:1002B800A630F500F50B5E29000083120313061221
:1002C800A630F500F50B6629000008008312031319
:1002D800B600B401B501842934083607F400740A5D
:1002E80084000008FF0034083607F500750884000C
:1002F8007F0880000130B4070318B50A0030B5073D
:1003080034083607F400740A840083130008031DB8
:100318008E298F29702934083607F4007408840060
:1003280080010800831203138C1D9B299C29B7297F
:100338008C117908203E8400130883138000013053
:10034800FF007F08F9072008D03EF70079087702F8
:100358000318AF29B029B7297908203E8400800105
:10036800F801F80AF9017308FF0072088A00710899
:100378008400700E8300FE0E7E0E090083120313A4
:10038800B700B801B901DB2938083707F600760845
:10039800840000080A128A1129210A128A110130E0
:1003A80083120313B8070318B90A0030B9073808CD
:1003B8003707F6007608840083130008031DE52933
:1003C800E629C8290800F400741CEB29EC29F02957
:1003D800831203130614F329831203130610F41C63
:1003E800F629F729F9298614FA298610741DFD299A
:1003F800FE29002A0615012A0611F41D042A052AD9
:10040800072A8615082A8611080083120313141078
:1004180094101415941194161412831603131413BC
:1004280094138715071687121F109F101F159F1109
:1004380085168C150B178B170800F600831203130B
:10044800861276080A128A11E7210A128A11831283
:1004580003130616A630F500F50B302A00008312A8
:1004680003130612080000300A128A1121220A1208
:100478008A1101300A128A1121220A128A110800EF
:1004880064008001840A0406031900340406452A1E
:02400E00713F00
:00000001FF
