:060000000A128A11FC2F18
:100E40000730FF007F08831603138604C730FF00B6
:100E50007F088605C030FF007F08831203138605D4
:100E600008000A128A1120270A128A11831203131A
:100E7000061C3B2F3C2F782F86150230F2004530A0
:100E8000F100A930F000F00B432FF10B432FF20BD0
:100E9000432F4A2FF730FF007F0883120313860584
:100EA00006160230F2004530F100A930F000F00BD8
:100EB000572FF10B572FF20B572F5E2FEF30FF00FC
:100EC0007F0883120313860586160230F200453030
:100ED000F100A930F000F00B6B2FF10B6B2FF20B30
:100EE0006B2F722FDF30FF007F08831203138605FC
:100EF000861C7B2F7C2FB72FF301F4013830FF00C5
:100F00007F088312031386060230F2004530F10099
:100F1000A930F000F00B8A2FF10B8A2FF20B8A2FE9
:100F2000912F3830FF007F088312031386060230AA
:100F3000F2004530F100A930F000F00B9D2FF10BCD
:100F40009D2FF20B9D2FA42F0130F3070318F40AF5
:100F50000030F4077408803AFF0080307F02031DE0
:100F6000B32F03307302031CB62FB72F7E2F8312CB
:100F70000313061DBC2FBD2FF92F86160230F20079
:100F80004530F100A930F000F00BC42FF10BC42F55
:100F9000F20BC42FCB2FDF30FF007F088312031327
:100FA000860506160230F2004530F100A930F00047
:100FB000F00BD82FF10BD82FF20BD82FDF2FEF30FB
:100FC000FF007F0883120313860586150230F200A6
:100FD0004530F100A930F000F00BEC2FF10BEC2FB5
:100FE000F20BEC2FF32FF730FF007F08831203136F
:100FF00086050A128A11002883010A128A11312FEC
:02400E00713F00
:00000001FF
