:060000000A128A11FC2F18
:100EC2004130831203139F008030831603139F0067
:100ED2000800FF30831603139200FB30FF007F08E7
:100EE20087050C30FF007F08831203139704121446
:100EF20012150030F600F7000A128A1183270A122F
:100F02008A110800043077020030031976020318B0
:100F12008B2F8C2FA32F76188F2F932F83120313CF
:100F22001716962F83120313171297127708F900D8
:100F32007608F8000310F90CF80C0310F90CF80C01
:100F42007808950008000A128A116A270A128A1183
:100F52000A128A1161270A128A1100300A128A11B2
:100F6200C8270A128A117108F7007008F6000A12DF
:100F72008A1183270A128A11C730FA00C02FFA0B8E
:100F8200BF2FC32FC42FAE2F0A128A110028F500DB
:100F920008307502031CCE2FCF2FD22FF001F101A2
:100FA200FB2FC730FF007F08831203139F057508CC
:100FB200F20002300310F20DFF3E031DDB2F03107F
:100FC200720DFF007F089F040930F200F20BE72F39
:100FD200EA2F831203131F151F19F02FF12FED2F84
:100FE2001E08F400831603131E08F3007408F100B0
:0E0FF2007308F000080083010A128A11A42F70
:02400E00713F00
:00000001FF
