:060000000A128A110C280F
:10000800FE00030EF0000A08F1000A128A112C28DB
:100018000A128A110F28F20183010A128A11412853
:1000280083120313141094101415941194161412B7
:1000380083160313141394131F109F101F159F1179
:1000480085168715071687128C150B178B1708004E
:10005800831203138C1D312832283A281308F20022
:10006800831603131410831203138C1171088A006A
:10007800700E8300FE0E7E0E09000A128A111420EB
:100088000A128A110A128A1153200A128A11720856
:100098008312031386004B280A128A110C28F030A9
:1000A800FF007F0883160313860583120313860156
:0200B80008003E
:02400E00713F00
:00000001FF
