:060000000A128A110E280D
:10000800FE00030EF4000A08F5007F08F6000A1245
:100018008A1115280A128A11112883010A128A11D5
:1000280098288B1C1828192820280330FF007F08DF
:100038008312031388068B100B1C232824283928C5
:1000480083120313061E29282A2839280030F000B5
:10005800F1000A128A11C8200A128A11FB30FF0027
:100068007F088312031387050B100B1C3C283D28BF
:100078004D2883120313861E422843284D280B302F
:10008800F0000130F1000A128A11C8200A128A1100
:100098000B100B1C50285128612883120313061FCC
:1000A8005628572861281630F0000230F1000A124D
:1000B8008A11C8200A128A110B100B1C64286528A3
:1000C800752883120313861F6A286B287528203029
:1000D800F0000330F1000A128A11C8200A128A11AE
:1000E8000B107608FF0075088A00740E8300FE0E58
:1000F8007E0E090083120313201883288728831291
:10010800031317168A28831203131712971221084C
:10011800A3002008A2000310A30CA20C0310A30C38
:10012800A20C2208950008000A128A11E0200A127F
:100138008A110A128A11F0200A128A110A128A11E7
:10014800B0200A128A110A128A11F7200A128A119B
:10015800AC280A128A110E28C7308316031392009E
:10016800FB30FF007F0887050C30FF007F088312F3
:100178000313970412150030A000A1000A128A1177
:100188007E200A128A1108007018CB28CF28831203
:1001980003131716D2288312031317129712710824
:1001A800F3007008F2000310F30CF20C0310F30CC8
:1001B800F20C720895000800831603130614F03039
:1001C800FF007F088604FC30FF007F0888050230A6
:1001D8008312031388000800FC30FF007F08831295
:1001E8000313920508000B168316031301178B17C8
:0401F8008B1508005B
:02400E00713F00
:00000001FF
